{
  "_format": "hh-sol-artifact-1",
  "contractName": "voting",
  "sourceName": "contracts/voting.sol",
  "abi": [
    {
      "inputs": [],
      "stateMutability": "nonpayable",
      "type": "constructor"
    },
    {
      "anonymous": false,
      "inputs": [
        {
          "indexed": true,
          "internalType": "uint256",
          "name": "candidateId",
          "type": "uint256"
        },
        {
          "indexed": false,
          "internalType": "string",
          "name": "name",
          "type": "string"
        },
        {
          "indexed": false,
          "internalType": "string",
          "name": "party",
          "type": "string"
        }
      ],
      "name": "CandidateRegistered",
      "type": "event"
    },
    {
      "anonymous": false,
      "inputs": [
        {
          "indexed": true,
          "internalType": "address",
          "name": "voter",
          "type": "address"
        },
        {
          "indexed": true,
          "internalType": "uint256",
          "name": "candidateId",
          "type": "uint256"
        }
      ],
      "name": "Voted",
      "type": "event"
    },
    {
      "anonymous": false,
      "inputs": [
        {
          "indexed": true,
          "internalType": "address",
          "name": "voter",
          "type": "address"
        }
      ],
      "name": "VoterRegistered",
      "type": "event"
    },
    {
      "anonymous": false,
      "inputs": [],
      "name": "VotingClosed",
      "type": "event"
    },
    {
      "anonymous": false,
      "inputs": [],
      "name": "VotingReopened",
      "type": "event"
    },
    {
      "inputs": [],
      "name": "admin",
      "outputs": [
        {
          "internalType": "address",
          "name": "",
          "type": "address"
        }
      ],
      "stateMutability": "view",
      "type": "function"
    },
    {
      "inputs": [
        {
          "internalType": "uint256",
          "name": "",
          "type": "uint256"
        }
      ],
      "name": "candidates",
      "outputs": [
        {
          "internalType": "uint256",
          "name": "candidateId",
          "type": "uint256"
        },
        {
          "internalType": "string",
          "name": "name",
          "type": "string"
        },
        {
          "internalType": "string",
          "name": "party",
          "type": "string"
        },
        {
          "internalType": "uint256",
          "name": "votes",
          "type": "uint256"
        },
        {
          "internalType": "bool",
          "name": "exists",
          "type": "bool"
        }
      ],
      "stateMutability": "view",
      "type": "function"
    },
    {
      "inputs": [],
      "name": "closeVoting",
      "outputs": [],
      "stateMutability": "nonpayable",
      "type": "function"
    },
    {
      "inputs": [],
      "name": "getCandidatesInfo",
      "outputs": [
        {
          "components": [
            {
              "internalType": "uint256",
              "name": "candidateId",
              "type": "uint256"
            },
            {
              "internalType": "string",
              "name": "name",
              "type": "string"
            },
            {
              "internalType": "string",
              "name": "party",
              "type": "string"
            }
          ],
          "internalType": "struct voting.CandidateInfo[]",
          "name": "",
          "type": "tuple[]"
        }
      ],
      "stateMutability": "view",
      "type": "function"
    },
    {
      "inputs": [
        {
          "internalType": "uint256",
          "name": "candidateId",
          "type": "uint256"
        }
      ],
      "name": "getVotesCount",
      "outputs": [
        {
          "internalType": "uint256",
          "name": "",
          "type": "uint256"
        }
      ],
      "stateMutability": "view",
      "type": "function"
    },
    {
      "inputs": [],
      "name": "getVotesForAllCandidates",
      "outputs": [
        {
          "components": [
            {
              "internalType": "uint256",
              "name": "candidateId",
              "type": "uint256"
            },
            {
              "internalType": "string",
              "name": "name",
              "type": "string"
            },
            {
              "internalType": "string",
              "name": "party",
              "type": "string"
            },
            {
              "internalType": "uint256",
              "name": "votesCount",
              "type": "uint256"
            }
          ],
          "internalType": "struct voting.VoteResult[]",
          "name": "",
          "type": "tuple[]"
        }
      ],
      "stateMutability": "view",
      "type": "function"
    },
    {
      "inputs": [
        {
          "internalType": "address",
          "name": "",
          "type": "address"
        }
      ],
      "name": "hasVoted",
      "outputs": [
        {
          "internalType": "bool",
          "name": "",
          "type": "bool"
        }
      ],
      "stateMutability": "view",
      "type": "function"
    },
    {
      "inputs": [
        {
          "internalType": "address",
          "name": "",
          "type": "address"
        }
      ],
      "name": "isRegisteredVoter",
      "outputs": [
        {
          "internalType": "bool",
          "name": "",
          "type": "bool"
        }
      ],
      "stateMutability": "view",
      "type": "function"
    },
    {
      "inputs": [
        {
          "internalType": "string",
          "name": "name",
          "type": "string"
        },
        {
          "internalType": "string",
          "name": "party",
          "type": "string"
        }
      ],
      "name": "registerCandidate",
      "outputs": [],
      "stateMutability": "nonpayable",
      "type": "function"
    },
    {
      "inputs": [
        {
          "internalType": "address",
          "name": "voter",
          "type": "address"
        }
      ],
      "name": "registerVoter",
      "outputs": [],
      "stateMutability": "nonpayable",
      "type": "function"
    },
    {
      "inputs": [],
      "name": "reopenVoting",
      "outputs": [],
      "stateMutability": "nonpayable",
      "type": "function"
    },
    {
      "inputs": [],
      "name": "totalCandidates",
      "outputs": [
        {
          "internalType": "uint256",
          "name": "",
          "type": "uint256"
        }
      ],
      "stateMutability": "view",
      "type": "function"
    },
    {
      "inputs": [
        {
          "internalType": "uint256",
          "name": "candidateId",
          "type": "uint256"
        }
      ],
      "name": "vote",
      "outputs": [],
      "stateMutability": "nonpayable",
      "type": "function"
    },
    {
      "inputs": [],
      "name": "votingOpen",
      "outputs": [
        {
          "internalType": "bool",
          "name": "",
          "type": "bool"
        }
      ],
      "stateMutability": "view",
      "type": "function"
    }
  ],
  "bytecode": "0x608060405234801561001057600080fd5b50336000806101000a81548173ffffffffffffffffffffffffffffffffffffffff021916908373ffffffffffffffffffffffffffffffffffffffff1602179055506001600460006101000a81548160ff021916908315150217905550600060058190555061207c806100836000396000f3fe608060405234801561001057600080fd5b50600436106100ea5760003560e01c806338db6dd31161008c578063c631b29211610066578063c631b2921461023b578063da36cffe14610245578063ea5fb4a414610275578063f851a44014610293576100ea565b806338db6dd3146101e3578063a4bcbf1e146101ff578063a95824b41461021d576100ea565b80631937c261116100c85780631937c261146101575780632f61eabc146101875780633477ee2e146101915780633866965c146101c5576100ea565b80630121b93f146100ef57806309eef43e1461010b5780630dbce4dd1461013b575b600080fd5b610109600480360381019061010491906111e9565b6102b1565b005b61012560048036038101906101209190611274565b610547565b60405161013291906112bc565b60405180910390f35b6101556004803603810190610150919061141d565b610567565b005b610171600480360381019061016c91906111e9565b6106f2565b60405161017e91906114a4565b60405180910390f35b61018f610775565b005b6101ab60048036038101906101a691906111e9565b61089c565b6040516101bc95949392919061153e565b60405180910390f35b6101cd6109ef565b6040516101da91906114a4565b60405180910390f35b6101fd60048036038101906101f89190611274565b6109f5565b005b610207610bad565b6040516102149190611711565b60405180910390f35b610225610db5565b60405161023291906112bc565b60405180910390f35b610243610dc8565b005b61025f600480360381019061025a9190611274565b610eee565b60405161026c91906112bc565b60405180910390f35b61027d610f0e565b60405161028a919061185f565b60405180910390f35b61029b611132565b6040516102a89190611890565b60405180910390f35b600160003373ffffffffffffffffffffffffffffffffffffffff1673ffffffffffffffffffffffffffffffffffffffff16815260200190815260200160002060009054906101000a900460ff1661033d576040517f08c379a0000000000000000000000000000000000000000000000000000000008152600401610334906118f7565b60405180910390fd5b600460009054906101000a900460ff1661038c576040517f08c379a000000000000000000000000000000000000000000000000000000000815260040161038390611989565b60405180910390fd5b600360003373ffffffffffffffffffffffffffffffffffffffff1673ffffffffffffffffffffffffffffffffffffffff16815260200190815260200160002060009054906101000a900460ff1615610419576040517f08c379a0000000000000000000000000000000000000000000000000000000008152600401610410906119f5565b60405180910390fd5b6002600082815260200190815260200160002060040160009054906101000a900460ff1661047c576040517f08c379a000000000000000000000000000000000000000000000000000000000815260040161047390611a61565b60405180910390fd5b6001600360003373ffffffffffffffffffffffffffffffffffffffff1673ffffffffffffffffffffffffffffffffffffffff16815260200190815260200160002060006101000a81548160ff0219169083151502179055506002600082815260200190815260200160002060030160008154809291906104fb90611ab0565b9190505550803373ffffffffffffffffffffffffffffffffffffffff167f4d99b957a2bc29a30ebd96a7be8e68fe50a3c701db28a91436490b7d53870ca460405160405180910390a350565b60036020528060005260406000206000915054906101000a900460ff1681565b60008054906101000a900473ffffffffffffffffffffffffffffffffffffffff1673ffffffffffffffffffffffffffffffffffffffff163373ffffffffffffffffffffffffffffffffffffffff16146105f5576040517f08c379a00000000000000000000000000000000000000000000000000000000081526004016105ec90611b6a565b60405180910390fd5b6005600081548092919061060890611ab0565b91905055506040518060a001604052806005548152602001838152602001828152602001600081526020016001151581525060026000600554815260200190815260200160002060008201518160000155602082015181600101908161066e9190611d96565b5060408201518160020190816106849190611d96565b506060820151816003015560808201518160040160006101000a81548160ff0219169083151502179055509050506005547f0ec1a365aeeec255796bf50d7a2a8f24d0d5f5c6ada0167b6c647428d916458283836040516106e6929190611e68565b60405180910390a25050565b60006002600083815260200190815260200160002060040160009054906101000a900460ff16610757576040517f08c379a000000000000000000000000000000000000000000000000000000000815260040161074e90611a61565b60405180910390fd5b60026000838152602001908152602001600020600301549050919050565b60008054906101000a900473ffffffffffffffffffffffffffffffffffffffff1673ffffffffffffffffffffffffffffffffffffffff163373ffffffffffffffffffffffffffffffffffffffff1614610803576040517f08c379a00000000000000000000000000000000000000000000000000000000081526004016107fa90611b6a565b60405180910390fd5b600460009054906101000a900460ff1615610853576040517f08c379a000000000000000000000000000000000000000000000000000000000815260040161084a90611eeb565b60405180910390fd5b6001600460006101000a81548160ff0219169083151502179055507fdacbeb9b45dfe110dbb2ef27339c6ccced84bab18a2678db489d80e975634f1b60405160405180910390a1565b60026020528060005260406000206000915090508060000154908060010180546108c590611bb9565b80601f01602080910402602001604051908101604052809291908181526020018280546108f190611bb9565b801561093e5780601f106109135761010080835404028352916020019161093e565b820191906000526020600020905b81548152906001019060200180831161092157829003601f168201915b50505050509080600201805461095390611bb9565b80601f016020809104026020016040519081016040528092919081815260200182805461097f90611bb9565b80156109cc5780601f106109a1576101008083540402835291602001916109cc565b820191906000526020600020905b8154815290600101906020018083116109af57829003601f168201915b5050505050908060030154908060040160009054906101000a900460ff16905085565b60055481565b60008054906101000a900473ffffffffffffffffffffffffffffffffffffffff1673ffffffffffffffffffffffffffffffffffffffff163373ffffffffffffffffffffffffffffffffffffffff1614610a83576040517f08c379a0000000000000000000000000000000000000000000000000000000008152600401610a7a90611b6a565b60405180910390fd5b600160008273ffffffffffffffffffffffffffffffffffffffff1673ffffffffffffffffffffffffffffffffffffffff16815260200190815260200160002060009054906101000a900460ff1615610b10576040517f08c379a0000000000000000000000000000000000000000000000000000000008152600401610b0790611f57565b60405180910390fd5b60018060008373ffffffffffffffffffffffffffffffffffffffff1673ffffffffffffffffffffffffffffffffffffffff16815260200190815260200160002060006101000a81548160ff0219169083151502179055508073ffffffffffffffffffffffffffffffffffffffff167fb6be2187d059cc2a55fe29e0e503b566e1e0f8c8780096e185429350acffd3dd60405160405180910390a250565b6060600060055467ffffffffffffffff811115610bcd57610bcc6112f2565b5b604051908082528060200260200182016040528015610c0657816020015b610bf3611156565b815260200190600190039081610beb5790505b5090506000600190505b6005548111610dad576040518060600160405280828152602001600260008481526020019081526020016000206001018054610c4b90611bb9565b80601f0160208091040260200160405190810160405280929190818152602001828054610c7790611bb9565b8015610cc45780601f10610c9957610100808354040283529160200191610cc4565b820191906000526020600020905b815481529060010190602001808311610ca757829003601f168201915b50505050508152602001600260008481526020019081526020016000206002018054610cef90611bb9565b80601f0160208091040260200160405190810160405280929190818152602001828054610d1b90611bb9565b8015610d685780601f10610d3d57610100808354040283529160200191610d68565b820191906000526020600020905b815481529060010190602001808311610d4b57829003601f168201915b505050505081525082600183610d7e9190611f77565b81518110610d8f57610d8e611fab565b5b60200260200101819052508080610da590611ab0565b915050610c10565b508091505090565b600460009054906101000a900460ff1681565b60008054906101000a900473ffffffffffffffffffffffffffffffffffffffff1673ffffffffffffffffffffffffffffffffffffffff163373ffffffffffffffffffffffffffffffffffffffff1614610e56576040517f08c379a0000000000000000000000000000000000000000000000000000000008152600401610e4d90611b6a565b60405180910390fd5b600460009054906101000a900460ff16610ea5576040517f08c379a0000000000000000000000000000000000000000000000000000000008152600401610e9c90612026565b60405180910390fd5b6000600460006101000a81548160ff0219169083151502179055507f66b6cb4a09abc3bf1cacc3c67420258856ffdad0deba9078cbd1658957b5021860405160405180910390a1565b60016020528060005260406000206000915054906101000a900460ff1681565b6060600060055467ffffffffffffffff811115610f2e57610f2d6112f2565b5b604051908082528060200260200182016040528015610f6757816020015b610f54611177565b815260200190600190039081610f4c5790505b5090506000600190505b600554811161112a576040518060800160405280828152602001600260008481526020019081526020016000206001018054610fac90611bb9565b80601f0160208091040260200160405190810160405280929190818152602001828054610fd890611bb9565b80156110255780601f10610ffa57610100808354040283529160200191611025565b820191906000526020600020905b81548152906001019060200180831161100857829003601f168201915b5050505050815260200160026000848152602001908152602001600020600201805461105090611bb9565b80601f016020809104026020016040519081016040528092919081815260200182805461107c90611bb9565b80156110c95780601f1061109e576101008083540402835291602001916110c9565b820191906000526020600020905b8154815290600101906020018083116110ac57829003601f168201915b505050505081526020016002600084815260200190815260200160002060030154815250826001836110fb9190611f77565b8151811061110c5761110b611fab565b5b6020026020010181905250808061112290611ab0565b915050610f71565b508091505090565b60008054906101000a900473ffffffffffffffffffffffffffffffffffffffff1681565b60405180606001604052806000815260200160608152602001606081525090565b6040518060800160405280600081526020016060815260200160608152602001600081525090565b6000604051905090565b600080fd5b600080fd5b6000819050919050565b6111c6816111b3565b81146111d157600080fd5b50565b6000813590506111e3816111bd565b92915050565b6000602082840312156111ff576111fe6111a9565b5b600061120d848285016111d4565b91505092915050565b600073ffffffffffffffffffffffffffffffffffffffff82169050919050565b600061124182611216565b9050919050565b61125181611236565b811461125c57600080fd5b50565b60008135905061126e81611248565b92915050565b60006020828403121561128a576112896111a9565b5b60006112988482850161125f565b91505092915050565b60008115159050919050565b6112b6816112a1565b82525050565b60006020820190506112d160008301846112ad565b92915050565b600080fd5b600080fd5b6000601f19601f8301169050919050565b7f4e487b7100000000000000000000000000000000000000000000000000000000600052604160045260246000fd5b61132a826112e1565b810181811067ffffffffffffffff82111715611349576113486112f2565b5b80604052505050565b600061135c61119f565b90506113688282611321565b919050565b600067ffffffffffffffff821115611388576113876112f2565b5b611391826112e1565b9050602081019050919050565b82818337600083830152505050565b60006113c06113bb8461136d565b611352565b9050828152602081018484840111156113dc576113db6112dc565b5b6113e784828561139e565b509392505050565b600082601f830112611404576114036112d7565b5b81356114148482602086016113ad565b91505092915050565b60008060408385031215611434576114336111a9565b5b600083013567ffffffffffffffff811115611452576114516111ae565b5b61145e858286016113ef565b925050602083013567ffffffffffffffff81111561147f5761147e6111ae565b5b61148b858286016113ef565b9150509250929050565b61149e816111b3565b82525050565b60006020820190506114b96000830184611495565b92915050565b600081519050919050565b600082825260208201905092915050565b60005b838110156114f95780820151818401526020810190506114de565b60008484015250505050565b6000611510826114bf565b61151a81856114ca565b935061152a8185602086016114db565b611533816112e1565b840191505092915050565b600060a0820190506115536000830188611495565b81810360208301526115658187611505565b905081810360408301526115798186611505565b90506115886060830185611495565b61159560808301846112ad565b9695505050505050565b600081519050919050565b600082825260208201905092915050565b6000819050602082019050919050565b6115d4816111b3565b82525050565b600082825260208201905092915050565b60006115f6826114bf565b61160081856115da565b93506116108185602086016114db565b611619816112e1565b840191505092915050565b600060608301600083015161163c60008601826115cb565b506020830151848203602086015261165482826115eb565b9150506040830151848203604086015261166e82826115eb565b9150508091505092915050565b60006116878383611624565b905092915050565b6000602082019050919050565b60006116a78261159f565b6116b181856115aa565b9350836020820285016116c3856115bb565b8060005b858110156116ff57848403895281516116e0858261167b565b94506116eb8361168f565b925060208a019950506001810190506116c7565b50829750879550505050505092915050565b6000602082019050818103600083015261172b818461169c565b905092915050565b600081519050919050565b600082825260208201905092915050565b6000819050602082019050919050565b600060808301600083015161177760008601826115cb565b506020830151848203602086015261178f82826115eb565b915050604083015184820360408601526117a982826115eb565b91505060608301516117be60608601826115cb565b508091505092915050565b60006117d5838361175f565b905092915050565b6000602082019050919050565b60006117f582611733565b6117ff818561173e565b9350836020820285016118118561174f565b8060005b8581101561184d578484038952815161182e85826117c9565b9450611839836117dd565b925060208a01995050600181019050611815565b50829750879550505050505092915050565b6000602082019050818103600083015261187981846117ea565b905092915050565b61188a81611236565b82525050565b60006020820190506118a56000830184611881565b92915050565b7f4f6e6c79207265676973746572656420766f746572732063616e20766f746500600082015250565b60006118e1601f836114ca565b91506118ec826118ab565b602082019050919050565b60006020820190508181036000830152611910816118d4565b9050919050565b7f566f74696e67206973206e6f7420616c6c6f776564206174207468697320746960008201527f6d65000000000000000000000000000000000000000000000000000000000000602082015250565b60006119736022836114ca565b915061197e82611917565b604082019050919050565b600060208201905081810360008301526119a281611966565b9050919050565b7f596f75206861766520616c726561647920766f74656400000000000000000000600082015250565b60006119df6016836114ca565b91506119ea826119a9565b602082019050919050565b60006020820190508181036000830152611a0e816119d2565b9050919050565b7f496e76616c69642063616e646964617465000000000000000000000000000000600082015250565b6000611a4b6011836114ca565b9150611a5682611a15565b602082019050919050565b60006020820190508181036000830152611a7a81611a3e565b9050919050565b7f4e487b7100000000000000000000000000000000000000000000000000000000600052601160045260246000fd5b6000611abb826111b3565b91507fffffffffffffffffffffffffffffffffffffffffffffffffffffffffffffffff8203611aed57611aec611a81565b5b600182019050919050565b7f4f6e6c792061646d696e2063616e2063616c6c20746869732066756e6374696f60008201527f6e00000000000000000000000000000000000000000000000000000000000000602082015250565b6000611b546021836114ca565b9150611b5f82611af8565b604082019050919050565b60006020820190508181036000830152611b8381611b47565b9050919050565b7f4e487b7100000000000000000000000000000000000000000000000000000000600052602260045260246000fd5b60006002820490506001821680611bd157607f821691505b602082108103611be457611be3611b8a565b5b50919050565b60008190508160005260206000209050919050565b60006020601f8301049050919050565b600082821b905092915050565b600060088302611c4c7fffffffffffffffffffffffffffffffffffffffffffffffffffffffffffffffff82611c0f565b611c568683611c0f565b95508019841693508086168417925050509392505050565b6000819050919050565b6000611c93611c8e611c89846111b3565b611c6e565b6111b3565b9050919050565b6000819050919050565b611cad83611c78565b611cc1611cb982611c9a565b848454611c1c565b825550505050565b600090565b611cd6611cc9565b611ce1818484611ca4565b505050565b5b81811015611d0557611cfa600082611cce565b600181019050611ce7565b5050565b601f821115611d4a57611d1b81611bea565b611d2484611bff565b81016020851015611d33578190505b611d47611d3f85611bff565b830182611ce6565b50505b505050565b600082821c905092915050565b6000611d6d60001984600802611d4f565b1980831691505092915050565b6000611d868383611d5c565b9150826002028217905092915050565b611d9f826114bf565b67ffffffffffffffff811115611db857611db76112f2565b5b611dc28254611bb9565b611dcd828285611d09565b600060209050601f831160018114611e005760008415611dee578287015190505b611df88582611d7a565b865550611e60565b601f198416611e0e86611bea565b60005b82811015611e3657848901518255600182019150602085019450602081019050611e11565b86831015611e535784890151611e4f601f891682611d5c565b8355505b6001600288020188555050505b505050505050565b60006040820190508181036000830152611e828185611505565b90508181036020830152611e968184611505565b90509392505050565b7f566f74696e6720697320616c7265616479206f70656e00000000000000000000600082015250565b6000611ed56016836114ca565b9150611ee082611e9f565b602082019050919050565b60006020820190508181036000830152611f0481611ec8565b9050919050565b7f566f74657220697320616c726561647920726567697374657265640000000000600082015250565b6000611f41601b836114ca565b9150611f4c82611f0b565b602082019050919050565b60006020820190508181036000830152611f7081611f34565b9050919050565b6000611f82826111b3565b9150611f8d836111b3565b9250828203905081811115611fa557611fa4611a81565b5b92915050565b7f4e487b7100000000000000000000000000000000000000000000000000000000600052603260045260246000fd5b7f566f74696e6720697320616c726561647920636c6f7365640000000000000000600082015250565b60006120106018836114ca565b915061201b82611fda565b602082019050919050565b6000602082019050818103600083015261203f81612003565b905091905056fea26469706673582212200d96079be348219271f56ae13d5cbf780367b52ded3c68e7a2d85e735365c52164736f6c63430008180033",
  "linkReferences": {},
  "deployedLinkReferences": {}
}