{
  "_format": "hh-sol-artifact-1",
  "contractName": "voterr",
  "sourceName": "contracts/voterr.sol",
  "abi": [
    {
      "inputs": [],
      "stateMutability": "nonpayable",
      "type": "constructor"
    },
    {
      "anonymous": false,
      "inputs": [
        {
          "indexed": true,
          "internalType": "address",
          "name": "oldAdmin",
          "type": "address"
        },
        {
          "indexed": true,
          "internalType": "address",
          "name": "newAdmin",
          "type": "address"
        }
      ],
      "name": "AdminChanged",
      "type": "event"
    },
    {
      "anonymous": false,
      "inputs": [
        {
          "indexed": true,
          "internalType": "uint256",
          "name": "candidateId",
          "type": "uint256"
        },
        {
          "indexed": false,
          "internalType": "string",
          "name": "name",
          "type": "string"
        },
        {
          "indexed": false,
          "internalType": "string",
          "name": "party",
          "type": "string"
        }
      ],
      "name": "CandidateRegistered",
      "type": "event"
    },
    {
      "anonymous": false,
      "inputs": [
        {
          "indexed": true,
          "internalType": "uint256",
          "name": "winnerId",
          "type": "uint256"
        },
        {
          "indexed": false,
          "internalType": "string",
          "name": "name",
          "type": "string"
        },
        {
          "indexed": false,
          "internalType": "string",
          "name": "party",
          "type": "string"
        },
        {
          "indexed": false,
          "internalType": "uint256",
          "name": "votesCount",
          "type": "uint256"
        }
      ],
      "name": "ResultDeclared",
      "type": "event"
    },
    {
      "anonymous": false,
      "inputs": [
        {
          "indexed": true,
          "internalType": "address",
          "name": "voter",
          "type": "address"
        },
        {
          "indexed": true,
          "internalType": "uint256",
          "name": "candidateId",
          "type": "uint256"
        }
      ],
      "name": "Voted",
      "type": "event"
    },
    {
      "anonymous": false,
      "inputs": [
        {
          "indexed": true,
          "internalType": "address",
          "name": "voter",
          "type": "address"
        }
      ],
      "name": "VoterRegistered",
      "type": "event"
    },
    {
      "anonymous": false,
      "inputs": [],
      "name": "VotingClosed",
      "type": "event"
    },
    {
      "anonymous": false,
      "inputs": [],
      "name": "VotingReopened",
      "type": "event"
    },
    {
      "inputs": [],
      "name": "admin",
      "outputs": [
        {
          "internalType": "address",
          "name": "",
          "type": "address"
        }
      ],
      "stateMutability": "view",
      "type": "function"
    },
    {
      "inputs": [
        {
          "internalType": "uint256",
          "name": "",
          "type": "uint256"
        }
      ],
      "name": "candidates",
      "outputs": [
        {
          "internalType": "uint256",
          "name": "candidateId",
          "type": "uint256"
        },
        {
          "internalType": "string",
          "name": "name",
          "type": "string"
        },
        {
          "internalType": "string",
          "name": "party",
          "type": "string"
        },
        {
          "internalType": "uint256",
          "name": "votes",
          "type": "uint256"
        },
        {
          "internalType": "bool",
          "name": "exists",
          "type": "bool"
        }
      ],
      "stateMutability": "view",
      "type": "function"
    },
    {
      "inputs": [
        {
          "internalType": "address",
          "name": "newAdmin",
          "type": "address"
        }
      ],
      "name": "changeAdmin",
      "outputs": [],
      "stateMutability": "nonpayable",
      "type": "function"
    },
    {
      "inputs": [],
      "name": "closeVoting",
      "outputs": [],
      "stateMutability": "nonpayable",
      "type": "function"
    },
    {
      "inputs": [],
      "name": "declareResult",
      "outputs": [
        {
          "components": [
            {
              "internalType": "uint256",
              "name": "candidateId",
              "type": "uint256"
            },
            {
              "internalType": "string",
              "name": "name",
              "type": "string"
            },
            {
              "internalType": "string",
              "name": "party",
              "type": "string"
            },
            {
              "internalType": "uint256",
              "name": "votesCount",
              "type": "uint256"
            }
          ],
          "internalType": "struct voterr.VoteResult",
          "name": "",
          "type": "tuple"
        }
      ],
      "stateMutability": "nonpayable",
      "type": "function"
    },
    {
      "inputs": [],
      "name": "getCandidatesInfo",
      "outputs": [
        {
          "components": [
            {
              "internalType": "uint256",
              "name": "candidateId",
              "type": "uint256"
            },
            {
              "internalType": "string",
              "name": "name",
              "type": "string"
            },
            {
              "internalType": "string",
              "name": "party",
              "type": "string"
            }
          ],
          "internalType": "struct voterr.CandidateInfo[]",
          "name": "",
          "type": "tuple[]"
        }
      ],
      "stateMutability": "view",
      "type": "function"
    },
    {
      "inputs": [
        {
          "internalType": "uint256",
          "name": "candidateId",
          "type": "uint256"
        }
      ],
      "name": "getVotesCount",
      "outputs": [
        {
          "internalType": "uint256",
          "name": "",
          "type": "uint256"
        }
      ],
      "stateMutability": "view",
      "type": "function"
    },
    {
      "inputs": [],
      "name": "getVotesForAllCandidates",
      "outputs": [
        {
          "components": [
            {
              "internalType": "uint256",
              "name": "candidateId",
              "type": "uint256"
            },
            {
              "internalType": "string",
              "name": "name",
              "type": "string"
            },
            {
              "internalType": "string",
              "name": "party",
              "type": "string"
            },
            {
              "internalType": "uint256",
              "name": "votesCount",
              "type": "uint256"
            }
          ],
          "internalType": "struct voterr.VoteResult[]",
          "name": "",
          "type": "tuple[]"
        }
      ],
      "stateMutability": "view",
      "type": "function"
    },
    {
      "inputs": [
        {
          "internalType": "address",
          "name": "",
          "type": "address"
        }
      ],
      "name": "hasVoted",
      "outputs": [
        {
          "internalType": "bool",
          "name": "",
          "type": "bool"
        }
      ],
      "stateMutability": "view",
      "type": "function"
    },
    {
      "inputs": [
        {
          "internalType": "address",
          "name": "",
          "type": "address"
        }
      ],
      "name": "isRegisteredVoter",
      "outputs": [
        {
          "internalType": "bool",
          "name": "",
          "type": "bool"
        }
      ],
      "stateMutability": "view",
      "type": "function"
    },
    {
      "inputs": [
        {
          "internalType": "string",
          "name": "name",
          "type": "string"
        },
        {
          "internalType": "string",
          "name": "party",
          "type": "string"
        }
      ],
      "name": "registerCandidate",
      "outputs": [],
      "stateMutability": "nonpayable",
      "type": "function"
    },
    {
      "inputs": [
        {
          "internalType": "address",
          "name": "voter",
          "type": "address"
        }
      ],
      "name": "registerVoter",
      "outputs": [],
      "stateMutability": "nonpayable",
      "type": "function"
    },
    {
      "inputs": [],
      "name": "reopenVoting",
      "outputs": [],
      "stateMutability": "nonpayable",
      "type": "function"
    },
    {
      "inputs": [
        {
          "internalType": "address",
          "name": "voter",
          "type": "address"
        }
      ],
      "name": "terimakichut",
      "outputs": [
        {
          "internalType": "bool",
          "name": "",
          "type": "bool"
        }
      ],
      "stateMutability": "view",
      "type": "function"
    },
    {
      "inputs": [],
      "name": "totalCandidates",
      "outputs": [
        {
          "internalType": "uint256",
          "name": "",
          "type": "uint256"
        }
      ],
      "stateMutability": "view",
      "type": "function"
    },
    {
      "inputs": [
        {
          "internalType": "uint256",
          "name": "candidateId",
          "type": "uint256"
        }
      ],
      "name": "vote",
      "outputs": [],
      "stateMutability": "nonpayable",
      "type": "function"
    },
    {
      "inputs": [],
      "name": "votingOpen",
      "outputs": [
        {
          "internalType": "bool",
          "name": "",
          "type": "bool"
        }
      ],
      "stateMutability": "view",
      "type": "function"
    }
  ],
  "bytecode": "0x608060405234801561001057600080fd5b50336000806101000a81548173ffffffffffffffffffffffffffffffffffffffff021916908373ffffffffffffffffffffffffffffffffffffffff1602179055506001600460006101000a81548160ff02191690831515021790555060006005819055506128ad806100836000396000f3fe608060405234801561001057600080fd5b506004361061010b5760003560e01c80638574c296116100a2578063c631b29211610071578063c631b29214610296578063c7abb026146102a0578063da36cffe146102d0578063ea5fb4a414610300578063f851a4401461031e5761010b565b80638574c296146102205780638f2839701461023e578063a4bcbf1e1461025a578063a95824b4146102785761010b565b80632f61eabc116100de5780632f61eabc146101a85780633477ee2e146101b25780633866965c146101e657806338db6dd3146102045761010b565b80630121b93f1461011057806309eef43e1461012c5780630dbce4dd1461015c5780631937c26114610178575b600080fd5b61012a600480360381019061012591906117df565b61033c565b005b6101466004803603810190610141919061186a565b6105d2565b60405161015391906118b2565b60405180910390f35b61017660048036038101906101719190611a13565b6105f2565b005b610192600480360381019061018d91906117df565b61077d565b60405161019f9190611a9a565b60405180910390f35b6101b0610800565b005b6101cc60048036038101906101c791906117df565b610927565b6040516101dd959493929190611b34565b60405180910390f35b6101ee610a7a565b6040516101fb9190611a9a565b60405180910390f35b61021e6004803603810190610219919061186a565b610a80565b005b610228610c38565b6040516102359190611c58565b60405180910390f35b6102586004803603810190610253919061186a565b610f93565b005b61026261114d565b60405161026f9190611d93565b60405180910390f35b610280611355565b60405161028d91906118b2565b60405180910390f35b61029e611368565b005b6102ba60048036038101906102b5919061186a565b61148e565b6040516102c791906118b2565b60405180910390f35b6102ea60048036038101906102e5919061186a565b6114e4565b6040516102f791906118b2565b60405180910390f35b610308611504565b6040516103159190611ee1565b60405180910390f35b610326611728565b6040516103339190611f12565b60405180910390f35b600160003373ffffffffffffffffffffffffffffffffffffffff1673ffffffffffffffffffffffffffffffffffffffff16815260200190815260200160002060009054906101000a900460ff166103c8576040517f08c379a00000000000000000000000000000000000000000000000000000000081526004016103bf90611f79565b60405180910390fd5b600460009054906101000a900460ff16610417576040517f08c379a000000000000000000000000000000000000000000000000000000000815260040161040e9061200b565b60405180910390fd5b600360003373ffffffffffffffffffffffffffffffffffffffff1673ffffffffffffffffffffffffffffffffffffffff16815260200190815260200160002060009054906101000a900460ff16156104a4576040517f08c379a000000000000000000000000000000000000000000000000000000000815260040161049b90612077565b60405180910390fd5b6002600082815260200190815260200160002060040160009054906101000a900460ff16610507576040517f08c379a00000000000000000000000000000000000000000000000000000000081526004016104fe906120e3565b60405180910390fd5b6001600360003373ffffffffffffffffffffffffffffffffffffffff1673ffffffffffffffffffffffffffffffffffffffff16815260200190815260200160002060006101000a81548160ff02191690831515021790555060026000828152602001908152602001600020600301600081548092919061058690612132565b9190505550803373ffffffffffffffffffffffffffffffffffffffff167f4d99b957a2bc29a30ebd96a7be8e68fe50a3c701db28a91436490b7d53870ca460405160405180910390a350565b60036020528060005260406000206000915054906101000a900460ff1681565b60008054906101000a900473ffffffffffffffffffffffffffffffffffffffff1673ffffffffffffffffffffffffffffffffffffffff163373ffffffffffffffffffffffffffffffffffffffff1614610680576040517f08c379a0000000000000000000000000000000000000000000000000000000008152600401610677906121ec565b60405180910390fd5b6005600081548092919061069390612132565b91905055506040518060a00160405280600554815260200183815260200182815260200160008152602001600115158152506002600060055481526020019081526020016000206000820151816000015560208201518160010190816106f99190612418565b50604082015181600201908161070f9190612418565b506060820151816003015560808201518160040160006101000a81548160ff0219169083151502179055509050506005547f0ec1a365aeeec255796bf50d7a2a8f24d0d5f5c6ada0167b6c647428d916458283836040516107719291906124ea565b60405180910390a25050565b60006002600083815260200190815260200160002060040160009054906101000a900460ff166107e2576040517f08c379a00000000000000000000000000000000000000000000000000000000081526004016107d9906120e3565b60405180910390fd5b60026000838152602001908152602001600020600301549050919050565b60008054906101000a900473ffffffffffffffffffffffffffffffffffffffff1673ffffffffffffffffffffffffffffffffffffffff163373ffffffffffffffffffffffffffffffffffffffff161461088e576040517f08c379a0000000000000000000000000000000000000000000000000000000008152600401610885906121ec565b60405180910390fd5b600460009054906101000a900460ff16156108de576040517f08c379a00000000000000000000000000000000000000000000000000000000081526004016108d59061256d565b60405180910390fd5b6001600460006101000a81548160ff0219169083151502179055507fdacbeb9b45dfe110dbb2ef27339c6ccced84bab18a2678db489d80e975634f1b60405160405180910390a1565b60026020528060005260406000206000915090508060000154908060010180546109509061223b565b80601f016020809104026020016040519081016040528092919081815260200182805461097c9061223b565b80156109c95780601f1061099e576101008083540402835291602001916109c9565b820191906000526020600020905b8154815290600101906020018083116109ac57829003601f168201915b5050505050908060020180546109de9061223b565b80601f0160208091040260200160405190810160405280929190818152602001828054610a0a9061223b565b8015610a575780601f10610a2c57610100808354040283529160200191610a57565b820191906000526020600020905b815481529060010190602001808311610a3a57829003601f168201915b5050505050908060030154908060040160009054906101000a900460ff16905085565b60055481565b60008054906101000a900473ffffffffffffffffffffffffffffffffffffffff1673ffffffffffffffffffffffffffffffffffffffff163373ffffffffffffffffffffffffffffffffffffffff1614610b0e576040517f08c379a0000000000000000000000000000000000000000000000000000000008152600401610b05906121ec565b60405180910390fd5b600160008273ffffffffffffffffffffffffffffffffffffffff1673ffffffffffffffffffffffffffffffffffffffff16815260200190815260200160002060009054906101000a900460ff1615610b9b576040517f08c379a0000000000000000000000000000000000000000000000000000000008152600401610b92906125d9565b60405180910390fd5b60018060008373ffffffffffffffffffffffffffffffffffffffff1673ffffffffffffffffffffffffffffffffffffffff16815260200190815260200160002060006101000a81548160ff0219169083151502179055508073ffffffffffffffffffffffffffffffffffffffff167fb6be2187d059cc2a55fe29e0e503b566e1e0f8c8780096e185429350acffd3dd60405160405180910390a250565b610c4061174c565b60008054906101000a900473ffffffffffffffffffffffffffffffffffffffff1673ffffffffffffffffffffffffffffffffffffffff163373ffffffffffffffffffffffffffffffffffffffff1614610cce576040517f08c379a0000000000000000000000000000000000000000000000000000000008152600401610cc5906121ec565b60405180910390fd5b600460009054906101000a900460ff1615610d1e576040517f08c379a0000000000000000000000000000000000000000000000000000000008152600401610d159061266b565b60405180910390fd5b600080600090506000600190505b6005548111610d83578160026000838152602001908152602001600020600301541115610d7057600260008281526020019081526020016000206003015491508092505b8080610d7b90612132565b915050610d2c565b5060008203610dc7576040517f08c379a0000000000000000000000000000000000000000000000000000000008152600401610dbe906126d7565b60405180910390fd5b60006040518060800160405280848152602001600260008681526020019081526020016000206001018054610dfb9061223b565b80601f0160208091040260200160405190810160405280929190818152602001828054610e279061223b565b8015610e745780601f10610e4957610100808354040283529160200191610e74565b820191906000526020600020905b815481529060010190602001808311610e5757829003601f168201915b50505050508152602001600260008681526020019081526020016000206002018054610e9f9061223b565b80601f0160208091040260200160405190810160405280929190818152602001828054610ecb9061223b565b8015610f185780601f10610eed57610100808354040283529160200191610f18565b820191906000526020600020905b815481529060010190602001808311610efb57829003601f168201915b505050505081526020016002600086815260200190815260200160002060030154815250905080600001517f9538ca086dc980ec7eb305b64e9af72c57b8d8210a6a7d8cef130980a9ddaca0826020015183604001518460600151604051610f82939291906126f7565b60405180910390a280935050505090565b60008054906101000a900473ffffffffffffffffffffffffffffffffffffffff1673ffffffffffffffffffffffffffffffffffffffff163373ffffffffffffffffffffffffffffffffffffffff1614611021576040517f08c379a0000000000000000000000000000000000000000000000000000000008152600401611018906121ec565b60405180910390fd5b600073ffffffffffffffffffffffffffffffffffffffff168173ffffffffffffffffffffffffffffffffffffffff1603611090576040517f08c379a000000000000000000000000000000000000000000000000000000000815260040161108790612788565b60405180910390fd5b8073ffffffffffffffffffffffffffffffffffffffff1660008054906101000a900473ffffffffffffffffffffffffffffffffffffffff1673ffffffffffffffffffffffffffffffffffffffff167f7e644d79422f17c01e4894b5f4f588d331ebfa28653d42ae832dc59e38c9798f60405160405180910390a3806000806101000a81548173ffffffffffffffffffffffffffffffffffffffff021916908373ffffffffffffffffffffffffffffffffffffffff16021790555050565b6060600060055467ffffffffffffffff81111561116d5761116c6118e8565b5b6040519080825280602002602001820160405280156111a657816020015b611193611774565b81526020019060019003908161118b5790505b5090506000600190505b600554811161134d5760405180606001604052808281526020016002600084815260200190815260200160002060010180546111eb9061223b565b80601f01602080910402602001604051908101604052809291908181526020018280546112179061223b565b80156112645780601f1061123957610100808354040283529160200191611264565b820191906000526020600020905b81548152906001019060200180831161124757829003601f168201915b5050505050815260200160026000848152602001908152602001600020600201805461128f9061223b565b80601f01602080910402602001604051908101604052809291908181526020018280546112bb9061223b565b80156113085780601f106112dd57610100808354040283529160200191611308565b820191906000526020600020905b8154815290600101906020018083116112eb57829003601f168201915b50505050508152508260018361131e91906127a8565b8151811061132f5761132e6127dc565b5b6020026020010181905250808061134590612132565b9150506111b0565b508091505090565b600460009054906101000a900460ff1681565b60008054906101000a900473ffffffffffffffffffffffffffffffffffffffff1673ffffffffffffffffffffffffffffffffffffffff163373ffffffffffffffffffffffffffffffffffffffff16146113f6576040517f08c379a00000000000000000000000000000000000000000000000000000000081526004016113ed906121ec565b60405180910390fd5b600460009054906101000a900460ff16611445576040517f08c379a000000000000000000000000000000000000000000000000000000000815260040161143c90612857565b60405180910390fd5b6000600460006101000a81548160ff0219169083151502179055507f66b6cb4a09abc3bf1cacc3c67420258856ffdad0deba9078cbd1658957b5021860405160405180910390a1565b6000600160008373ffffffffffffffffffffffffffffffffffffffff1673ffffffffffffffffffffffffffffffffffffffff16815260200190815260200160002060009054906101000a900460ff169050919050565b60016020528060005260406000206000915054906101000a900460ff1681565b6060600060055467ffffffffffffffff811115611524576115236118e8565b5b60405190808252806020026020018201604052801561155d57816020015b61154a61174c565b8152602001906001900390816115425790505b5090506000600190505b60055481116117205760405180608001604052808281526020016002600084815260200190815260200160002060010180546115a29061223b565b80601f01602080910402602001604051908101604052809291908181526020018280546115ce9061223b565b801561161b5780601f106115f05761010080835404028352916020019161161b565b820191906000526020600020905b8154815290600101906020018083116115fe57829003601f168201915b505050505081526020016002600084815260200190815260200160002060020180546116469061223b565b80601f01602080910402602001604051908101604052809291908181526020018280546116729061223b565b80156116bf5780601f10611694576101008083540402835291602001916116bf565b820191906000526020600020905b8154815290600101906020018083116116a257829003601f168201915b505050505081526020016002600084815260200190815260200160002060030154815250826001836116f191906127a8565b81518110611702576117016127dc565b5b6020026020010181905250808061171890612132565b915050611567565b508091505090565b60008054906101000a900473ffffffffffffffffffffffffffffffffffffffff1681565b6040518060800160405280600081526020016060815260200160608152602001600081525090565b60405180606001604052806000815260200160608152602001606081525090565b6000604051905090565b600080fd5b600080fd5b6000819050919050565b6117bc816117a9565b81146117c757600080fd5b50565b6000813590506117d9816117b3565b92915050565b6000602082840312156117f5576117f461179f565b5b6000611803848285016117ca565b91505092915050565b600073ffffffffffffffffffffffffffffffffffffffff82169050919050565b60006118378261180c565b9050919050565b6118478161182c565b811461185257600080fd5b50565b6000813590506118648161183e565b92915050565b6000602082840312156118805761187f61179f565b5b600061188e84828501611855565b91505092915050565b60008115159050919050565b6118ac81611897565b82525050565b60006020820190506118c760008301846118a3565b92915050565b600080fd5b600080fd5b6000601f19601f8301169050919050565b7f4e487b7100000000000000000000000000000000000000000000000000000000600052604160045260246000fd5b611920826118d7565b810181811067ffffffffffffffff8211171561193f5761193e6118e8565b5b80604052505050565b6000611952611795565b905061195e8282611917565b919050565b600067ffffffffffffffff82111561197e5761197d6118e8565b5b611987826118d7565b9050602081019050919050565b82818337600083830152505050565b60006119b66119b184611963565b611948565b9050828152602081018484840111156119d2576119d16118d2565b5b6119dd848285611994565b509392505050565b600082601f8301126119fa576119f96118cd565b5b8135611a0a8482602086016119a3565b91505092915050565b60008060408385031215611a2a57611a2961179f565b5b600083013567ffffffffffffffff811115611a4857611a476117a4565b5b611a54858286016119e5565b925050602083013567ffffffffffffffff811115611a7557611a746117a4565b5b611a81858286016119e5565b9150509250929050565b611a94816117a9565b82525050565b6000602082019050611aaf6000830184611a8b565b92915050565b600081519050919050565b600082825260208201905092915050565b60005b83811015611aef578082015181840152602081019050611ad4565b60008484015250505050565b6000611b0682611ab5565b611b108185611ac0565b9350611b20818560208601611ad1565b611b29816118d7565b840191505092915050565b600060a082019050611b496000830188611a8b565b8181036020830152611b5b8187611afb565b90508181036040830152611b6f8186611afb565b9050611b7e6060830185611a8b565b611b8b60808301846118a3565b9695505050505050565b611b9e816117a9565b82525050565b600082825260208201905092915050565b6000611bc082611ab5565b611bca8185611ba4565b9350611bda818560208601611ad1565b611be3816118d7565b840191505092915050565b6000608083016000830151611c066000860182611b95565b5060208301518482036020860152611c1e8282611bb5565b91505060408301518482036040860152611c388282611bb5565b9150506060830151611c4d6060860182611b95565b508091505092915050565b60006020820190508181036000830152611c728184611bee565b905092915050565b600081519050919050565b600082825260208201905092915050565b6000819050602082019050919050565b6000606083016000830151611cbe6000860182611b95565b5060208301518482036020860152611cd68282611bb5565b91505060408301518482036040860152611cf08282611bb5565b9150508091505092915050565b6000611d098383611ca6565b905092915050565b6000602082019050919050565b6000611d2982611c7a565b611d338185611c85565b935083602082028501611d4585611c96565b8060005b85811015611d815784840389528151611d628582611cfd565b9450611d6d83611d11565b925060208a01995050600181019050611d49565b50829750879550505050505092915050565b60006020820190508181036000830152611dad8184611d1e565b905092915050565b600081519050919050565b600082825260208201905092915050565b6000819050602082019050919050565b6000608083016000830151611df96000860182611b95565b5060208301518482036020860152611e118282611bb5565b91505060408301518482036040860152611e2b8282611bb5565b9150506060830151611e406060860182611b95565b508091505092915050565b6000611e578383611de1565b905092915050565b6000602082019050919050565b6000611e7782611db5565b611e818185611dc0565b935083602082028501611e9385611dd1565b8060005b85811015611ecf5784840389528151611eb08582611e4b565b9450611ebb83611e5f565b925060208a01995050600181019050611e97565b50829750879550505050505092915050565b60006020820190508181036000830152611efb8184611e6c565b905092915050565b611f0c8161182c565b82525050565b6000602082019050611f276000830184611f03565b92915050565b7f4f6e6c79207265676973746572656420766f746572732063616e20766f746500600082015250565b6000611f63601f83611ac0565b9150611f6e82611f2d565b602082019050919050565b60006020820190508181036000830152611f9281611f56565b9050919050565b7f566f74696e67206973206e6f7420616c6c6f776564206174207468697320746960008201527f6d65000000000000000000000000000000000000000000000000000000000000602082015250565b6000611ff5602283611ac0565b915061200082611f99565b604082019050919050565b6000602082019050818103600083015261202481611fe8565b9050919050565b7f596f75206861766520616c726561647920766f74656400000000000000000000600082015250565b6000612061601683611ac0565b915061206c8261202b565b602082019050919050565b6000602082019050818103600083015261209081612054565b9050919050565b7f496e76616c69642063616e646964617465000000000000000000000000000000600082015250565b60006120cd601183611ac0565b91506120d882612097565b602082019050919050565b600060208201905081810360008301526120fc816120c0565b9050919050565b7f4e487b7100000000000000000000000000000000000000000000000000000000600052601160045260246000fd5b600061213d826117a9565b91507fffffffffffffffffffffffffffffffffffffffffffffffffffffffffffffffff820361216f5761216e612103565b5b600182019050919050565b7f4f6e6c792061646d696e2063616e2063616c6c20746869732066756e6374696f60008201527f6e00000000000000000000000000000000000000000000000000000000000000602082015250565b60006121d6602183611ac0565b91506121e18261217a565b604082019050919050565b60006020820190508181036000830152612205816121c9565b9050919050565b7f4e487b7100000000000000000000000000000000000000000000000000000000600052602260045260246000fd5b6000600282049050600182168061225357607f821691505b6020821081036122665761226561220c565b5b50919050565b60008190508160005260206000209050919050565b60006020601f8301049050919050565b600082821b905092915050565b6000600883026122ce7fffffffffffffffffffffffffffffffffffffffffffffffffffffffffffffffff82612291565b6122d88683612291565b95508019841693508086168417925050509392505050565b6000819050919050565b600061231561231061230b846117a9565b6122f0565b6117a9565b9050919050565b6000819050919050565b61232f836122fa565b61234361233b8261231c565b84845461229e565b825550505050565b600090565b61235861234b565b612363818484612326565b505050565b5b818110156123875761237c600082612350565b600181019050612369565b5050565b601f8211156123cc5761239d8161226c565b6123a684612281565b810160208510156123b5578190505b6123c96123c185612281565b830182612368565b50505b505050565b600082821c905092915050565b60006123ef600019846008026123d1565b1980831691505092915050565b600061240883836123de565b9150826002028217905092915050565b61242182611ab5565b67ffffffffffffffff81111561243a576124396118e8565b5b612444825461223b565b61244f82828561238b565b600060209050601f8311600181146124825760008415612470578287015190505b61247a85826123fc565b8655506124e2565b601f1984166124908661226c565b60005b828110156124b857848901518255600182019150602085019450602081019050612493565b868310156124d557848901516124d1601f8916826123de565b8355505b6001600288020188555050505b505050505050565b600060408201905081810360008301526125048185611afb565b905081810360208301526125188184611afb565b90509392505050565b7f566f74696e6720697320616c7265616479206f70656e00000000000000000000600082015250565b6000612557601683611ac0565b915061256282612521565b602082019050919050565b600060208201905081810360008301526125868161254a565b9050919050565b7f566f74657220697320616c726561647920726567697374657265640000000000600082015250565b60006125c3601b83611ac0565b91506125ce8261258d565b602082019050919050565b600060208201905081810360008301526125f2816125b6565b9050919050565b7f566f74696e67206d75737420626520636c6f73656420746f206465636c61726560008201527f2074686520726573756c74000000000000000000000000000000000000000000602082015250565b6000612655602b83611ac0565b9150612660826125f9565b604082019050919050565b6000602082019050818103600083015261268481612648565b9050919050565b7f4e6f2076616c69642077696e6e657220666f756e640000000000000000000000600082015250565b60006126c1601583611ac0565b91506126cc8261268b565b602082019050919050565b600060208201905081810360008301526126f0816126b4565b9050919050565b600060608201905081810360008301526127118186611afb565b905081810360208301526127258185611afb565b90506127346040830184611a8b565b949350505050565b7f4e65772061646d696e20616464726573732063616e6e6f74206265207a65726f600082015250565b6000612772602083611ac0565b915061277d8261273c565b602082019050919050565b600060208201905081810360008301526127a181612765565b9050919050565b60006127b3826117a9565b91506127be836117a9565b92508282039050818111156127d6576127d5612103565b5b92915050565b7f4e487b7100000000000000000000000000000000000000000000000000000000600052603260045260246000fd5b7f566f74696e6720697320616c726561647920636c6f7365640000000000000000600082015250565b6000612841601883611ac0565b915061284c8261280b565b602082019050919050565b6000602082019050818103600083015261287081612834565b905091905056fea26469706673582212202e74e1bcdd4b88cf27574bbb7dc510e38fe5b592bcca2ff9b1fb646ea20e28a464736f6c63430008180033",
  "linkReferences": {},
  "deployedLinkReferences": {}
}