{
  "_format": "hh-sol-artifact-1",
  "contractName": "voterr",
  "sourceName": "contracts/voterr.sol",
  "abi": [
    {
      "inputs": [],
      "stateMutability": "nonpayable",
      "type": "constructor"
    },
    {
      "anonymous": false,
      "inputs": [
        {
          "indexed": true,
          "internalType": "address",
          "name": "oldAdmin",
          "type": "address"
        },
        {
          "indexed": true,
          "internalType": "address",
          "name": "newAdmin",
          "type": "address"
        }
      ],
      "name": "AdminChanged",
      "type": "event"
    },
    {
      "anonymous": false,
      "inputs": [
        {
          "indexed": true,
          "internalType": "uint256",
          "name": "candidateId",
          "type": "uint256"
        },
        {
          "indexed": false,
          "internalType": "string",
          "name": "name",
          "type": "string"
        },
        {
          "indexed": false,
          "internalType": "string",
          "name": "party",
          "type": "string"
        }
      ],
      "name": "CandidateRegistered",
      "type": "event"
    },
    {
      "anonymous": false,
      "inputs": [
        {
          "indexed": true,
          "internalType": "uint256",
          "name": "winnerId",
          "type": "uint256"
        },
        {
          "indexed": false,
          "internalType": "string",
          "name": "name",
          "type": "string"
        },
        {
          "indexed": false,
          "internalType": "string",
          "name": "party",
          "type": "string"
        },
        {
          "indexed": false,
          "internalType": "uint256",
          "name": "votesCount",
          "type": "uint256"
        }
      ],
      "name": "ResultDeclared",
      "type": "event"
    },
    {
      "anonymous": false,
      "inputs": [
        {
          "indexed": true,
          "internalType": "address",
          "name": "voter",
          "type": "address"
        },
        {
          "indexed": true,
          "internalType": "uint256",
          "name": "candidateId",
          "type": "uint256"
        }
      ],
      "name": "Voted",
      "type": "event"
    },
    {
      "anonymous": false,
      "inputs": [
        {
          "indexed": true,
          "internalType": "address",
          "name": "voter",
          "type": "address"
        }
      ],
      "name": "VoterRegistered",
      "type": "event"
    },
    {
      "anonymous": false,
      "inputs": [],
      "name": "VotingClosed",
      "type": "event"
    },
    {
      "anonymous": false,
      "inputs": [],
      "name": "VotingReopened",
      "type": "event"
    },
    {
      "inputs": [],
      "name": "admin",
      "outputs": [
        {
          "internalType": "address",
          "name": "",
          "type": "address"
        }
      ],
      "stateMutability": "view",
      "type": "function"
    },
    {
      "inputs": [
        {
          "internalType": "uint256",
          "name": "",
          "type": "uint256"
        }
      ],
      "name": "candidates",
      "outputs": [
        {
          "internalType": "uint256",
          "name": "candidateId",
          "type": "uint256"
        },
        {
          "internalType": "string",
          "name": "name",
          "type": "string"
        },
        {
          "internalType": "string",
          "name": "party",
          "type": "string"
        },
        {
          "internalType": "uint256",
          "name": "votes",
          "type": "uint256"
        },
        {
          "internalType": "bool",
          "name": "exists",
          "type": "bool"
        }
      ],
      "stateMutability": "view",
      "type": "function"
    },
    {
      "inputs": [
        {
          "internalType": "address",
          "name": "newAdmin",
          "type": "address"
        }
      ],
      "name": "changeAdmin",
      "outputs": [],
      "stateMutability": "nonpayable",
      "type": "function"
    },
    {
      "inputs": [],
      "name": "closeVoting",
      "outputs": [],
      "stateMutability": "nonpayable",
      "type": "function"
    },
    {
      "inputs": [],
      "name": "declareResult",
      "outputs": [
        {
          "components": [
            {
              "internalType": "uint256",
              "name": "candidateId",
              "type": "uint256"
            },
            {
              "internalType": "string",
              "name": "name",
              "type": "string"
            },
            {
              "internalType": "string",
              "name": "party",
              "type": "string"
            },
            {
              "internalType": "uint256",
              "name": "votesCount",
              "type": "uint256"
            }
          ],
          "internalType": "struct voterr.VoteResult[]",
          "name": "",
          "type": "tuple[]"
        }
      ],
      "stateMutability": "view",
      "type": "function"
    },
    {
      "inputs": [],
      "name": "getCandidatesInfo",
      "outputs": [
        {
          "components": [
            {
              "internalType": "uint256",
              "name": "candidateId",
              "type": "uint256"
            },
            {
              "internalType": "string",
              "name": "name",
              "type": "string"
            },
            {
              "internalType": "string",
              "name": "party",
              "type": "string"
            }
          ],
          "internalType": "struct voterr.CandidateInfo[]",
          "name": "",
          "type": "tuple[]"
        }
      ],
      "stateMutability": "view",
      "type": "function"
    },
    {
      "inputs": [
        {
          "internalType": "uint256",
          "name": "candidateId",
          "type": "uint256"
        }
      ],
      "name": "getVotesCount",
      "outputs": [
        {
          "internalType": "uint256",
          "name": "",
          "type": "uint256"
        }
      ],
      "stateMutability": "view",
      "type": "function"
    },
    {
      "inputs": [],
      "name": "getVotesForAllCandidates",
      "outputs": [
        {
          "components": [
            {
              "internalType": "uint256",
              "name": "candidateId",
              "type": "uint256"
            },
            {
              "internalType": "string",
              "name": "name",
              "type": "string"
            },
            {
              "internalType": "string",
              "name": "party",
              "type": "string"
            },
            {
              "internalType": "uint256",
              "name": "votesCount",
              "type": "uint256"
            }
          ],
          "internalType": "struct voterr.VoteResult[]",
          "name": "",
          "type": "tuple[]"
        }
      ],
      "stateMutability": "view",
      "type": "function"
    },
    {
      "inputs": [
        {
          "internalType": "address",
          "name": "",
          "type": "address"
        }
      ],
      "name": "hasVoted",
      "outputs": [
        {
          "internalType": "bool",
          "name": "",
          "type": "bool"
        }
      ],
      "stateMutability": "view",
      "type": "function"
    },
    {
      "inputs": [
        {
          "internalType": "address",
          "name": "",
          "type": "address"
        }
      ],
      "name": "isRegisteredVoter",
      "outputs": [
        {
          "internalType": "bool",
          "name": "",
          "type": "bool"
        }
      ],
      "stateMutability": "view",
      "type": "function"
    },
    {
      "inputs": [
        {
          "internalType": "string",
          "name": "name",
          "type": "string"
        },
        {
          "internalType": "string",
          "name": "party",
          "type": "string"
        }
      ],
      "name": "registerCandidate",
      "outputs": [],
      "stateMutability": "nonpayable",
      "type": "function"
    },
    {
      "inputs": [
        {
          "internalType": "address",
          "name": "voter",
          "type": "address"
        }
      ],
      "name": "registerVoter",
      "outputs": [],
      "stateMutability": "nonpayable",
      "type": "function"
    },
    {
      "inputs": [],
      "name": "reopenVoting",
      "outputs": [],
      "stateMutability": "nonpayable",
      "type": "function"
    },
    {
      "inputs": [],
      "name": "totalCandidates",
      "outputs": [
        {
          "internalType": "uint256",
          "name": "",
          "type": "uint256"
        }
      ],
      "stateMutability": "view",
      "type": "function"
    },
    {
      "inputs": [
        {
          "internalType": "uint256",
          "name": "candidateId",
          "type": "uint256"
        }
      ],
      "name": "vote",
      "outputs": [],
      "stateMutability": "nonpayable",
      "type": "function"
    },
    {
      "inputs": [],
      "name": "votingOpen",
      "outputs": [
        {
          "internalType": "bool",
          "name": "",
          "type": "bool"
        }
      ],
      "stateMutability": "view",
      "type": "function"
    }
  ],
  "bytecode": "0x608060405234801561001057600080fd5b50336000806101000a81548173ffffffffffffffffffffffffffffffffffffffff021916908373ffffffffffffffffffffffffffffffffffffffff1602179055506001600460006101000a81548160ff02191690831515021790555060006005819055506127eb806100836000396000f3fe608060405234801561001057600080fd5b50600436106101005760003560e01c80638574c29611610097578063c631b29211610066578063c631b2921461028b578063da36cffe14610295578063ea5fb4a4146102c5578063f851a440146102e357610100565b80638574c296146102155780638f28397014610233578063a4bcbf1e1461024f578063a95824b41461026d57610100565b80632f61eabc116100d35780632f61eabc1461019d5780633477ee2e146101a75780633866965c146101db57806338db6dd3146101f957610100565b80630121b93f1461010557806309eef43e146101215780630dbce4dd146101515780631937c2611461016d575b600080fd5b61011f600480360381019061011a91906117ee565b610301565b005b61013b60048036038101906101369190611879565b610597565b60405161014891906118c1565b60405180910390f35b61016b60048036038101906101669190611a22565b6105b7565b005b610187600480360381019061018291906117ee565b610742565b6040516101949190611aa9565b60405180910390f35b6101a56107c5565b005b6101c160048036038101906101bc91906117ee565b6108ec565b6040516101d2959493929190611b43565b60405180910390f35b6101e3610a3f565b6040516101f09190611aa9565b60405180910390f35b610213600480360381019061020e9190611879565b610a45565b005b61021d610bfd565b60405161022a9190611d29565b60405180910390f35b61024d60048036038101906102489190611879565b610ff8565b005b6102576111b2565b6040516102649190611e64565b60405180910390f35b6102756113ba565b60405161028291906118c1565b60405180910390f35b6102936113cd565b005b6102af60048036038101906102aa9190611879565b6114f3565b6040516102bc91906118c1565b60405180910390f35b6102cd611513565b6040516102da9190611d29565b60405180910390f35b6102eb611737565b6040516102f89190611e95565b60405180910390f35b600160003373ffffffffffffffffffffffffffffffffffffffff1673ffffffffffffffffffffffffffffffffffffffff16815260200190815260200160002060009054906101000a900460ff1661038d576040517f08c379a000000000000000000000000000000000000000000000000000000000815260040161038490611efc565b60405180910390fd5b600460009054906101000a900460ff166103dc576040517f08c379a00000000000000000000000000000000000000000000000000000000081526004016103d390611f8e565b60405180910390fd5b600360003373ffffffffffffffffffffffffffffffffffffffff1673ffffffffffffffffffffffffffffffffffffffff16815260200190815260200160002060009054906101000a900460ff1615610469576040517f08c379a000000000000000000000000000000000000000000000000000000000815260040161046090611ffa565b60405180910390fd5b6002600082815260200190815260200160002060040160009054906101000a900460ff166104cc576040517f08c379a00000000000000000000000000000000000000000000000000000000081526004016104c390612066565b60405180910390fd5b6001600360003373ffffffffffffffffffffffffffffffffffffffff1673ffffffffffffffffffffffffffffffffffffffff16815260200190815260200160002060006101000a81548160ff02191690831515021790555060026000828152602001908152602001600020600301600081548092919061054b906120b5565b9190505550803373ffffffffffffffffffffffffffffffffffffffff167f4d99b957a2bc29a30ebd96a7be8e68fe50a3c701db28a91436490b7d53870ca460405160405180910390a350565b60036020528060005260406000206000915054906101000a900460ff1681565b60008054906101000a900473ffffffffffffffffffffffffffffffffffffffff1673ffffffffffffffffffffffffffffffffffffffff163373ffffffffffffffffffffffffffffffffffffffff1614610645576040517f08c379a000000000000000000000000000000000000000000000000000000000815260040161063c9061216f565b60405180910390fd5b60056000815480929190610658906120b5565b91905055506040518060a00160405280600554815260200183815260200182815260200160008152602001600115158152506002600060055481526020019081526020016000206000820151816000015560208201518160010190816106be919061239b565b5060408201518160020190816106d4919061239b565b506060820151816003015560808201518160040160006101000a81548160ff0219169083151502179055509050506005547f0ec1a365aeeec255796bf50d7a2a8f24d0d5f5c6ada0167b6c647428d9164582838360405161073692919061246d565b60405180910390a25050565b60006002600083815260200190815260200160002060040160009054906101000a900460ff166107a7576040517f08c379a000000000000000000000000000000000000000000000000000000000815260040161079e90612066565b60405180910390fd5b60026000838152602001908152602001600020600301549050919050565b60008054906101000a900473ffffffffffffffffffffffffffffffffffffffff1673ffffffffffffffffffffffffffffffffffffffff163373ffffffffffffffffffffffffffffffffffffffff1614610853576040517f08c379a000000000000000000000000000000000000000000000000000000000815260040161084a9061216f565b60405180910390fd5b600460009054906101000a900460ff16156108a3576040517f08c379a000000000000000000000000000000000000000000000000000000000815260040161089a906124f0565b60405180910390fd5b6001600460006101000a81548160ff0219169083151502179055507fdacbeb9b45dfe110dbb2ef27339c6ccced84bab18a2678db489d80e975634f1b60405160405180910390a1565b6002602052806000526040600020600091509050806000015490806001018054610915906121be565b80601f0160208091040260200160405190810160405280929190818152602001828054610941906121be565b801561098e5780601f106109635761010080835404028352916020019161098e565b820191906000526020600020905b81548152906001019060200180831161097157829003601f168201915b5050505050908060020180546109a3906121be565b80601f01602080910402602001604051908101604052809291908181526020018280546109cf906121be565b8015610a1c5780601f106109f157610100808354040283529160200191610a1c565b820191906000526020600020905b8154815290600101906020018083116109ff57829003601f168201915b5050505050908060030154908060040160009054906101000a900460ff16905085565b60055481565b60008054906101000a900473ffffffffffffffffffffffffffffffffffffffff1673ffffffffffffffffffffffffffffffffffffffff163373ffffffffffffffffffffffffffffffffffffffff1614610ad3576040517f08c379a0000000000000000000000000000000000000000000000000000000008152600401610aca9061216f565b60405180910390fd5b600160008273ffffffffffffffffffffffffffffffffffffffff1673ffffffffffffffffffffffffffffffffffffffff16815260200190815260200160002060009054906101000a900460ff1615610b60576040517f08c379a0000000000000000000000000000000000000000000000000000000008152600401610b579061255c565b60405180910390fd5b60018060008373ffffffffffffffffffffffffffffffffffffffff1673ffffffffffffffffffffffffffffffffffffffff16815260200190815260200160002060006101000a81548160ff0219169083151502179055508073ffffffffffffffffffffffffffffffffffffffff167fb6be2187d059cc2a55fe29e0e503b566e1e0f8c8780096e185429350acffd3dd60405160405180910390a250565b606060008054906101000a900473ffffffffffffffffffffffffffffffffffffffff1673ffffffffffffffffffffffffffffffffffffffff163373ffffffffffffffffffffffffffffffffffffffff1614610c8d576040517f08c379a0000000000000000000000000000000000000000000000000000000008152600401610c849061216f565b60405180910390fd5b600460009054906101000a900460ff1615610cdd576040517f08c379a0000000000000000000000000000000000000000000000000000000008152600401610cd4906125ee565b60405180910390fd5b6000806000600190505b6005548111610d70578260026000838152602001908152602001600020600301541115610d30576002600082815260200190815260200160002060030154925060019150610d5d565b82600260008381526020019081526020016000206003015403610d5c578180610d58906120b5565b9250505b5b8080610d68906120b5565b915050610ce7565b5060008111610db4576040517f08c379a0000000000000000000000000000000000000000000000000000000008152600401610dab9061265a565b60405180910390fd5b60008167ffffffffffffffff811115610dd057610dcf6118f7565b5b604051908082528060200260200182016040528015610e0957816020015b610df661175b565b815260200190600190039081610dee5790505b509050600080600190505b6005548111610fed5784600260008381526020019081526020016000206003015403610fda576040518060800160405280828152602001600260008481526020019081526020016000206001018054610e6c906121be565b80601f0160208091040260200160405190810160405280929190818152602001828054610e98906121be565b8015610ee55780601f10610eba57610100808354040283529160200191610ee5565b820191906000526020600020905b815481529060010190602001808311610ec857829003601f168201915b50505050508152602001600260008481526020019081526020016000206002018054610f10906121be565b80601f0160208091040260200160405190810160405280929190818152602001828054610f3c906121be565b8015610f895780601f10610f5e57610100808354040283529160200191610f89565b820191906000526020600020905b815481529060010190602001808311610f6c57829003601f168201915b505050505081526020016002600084815260200190815260200160002060030154815250838381518110610fc057610fbf61267a565b5b60200260200101819052508180610fd6906120b5565b9250505b8080610fe5906120b5565b915050610e14565b508194505050505090565b60008054906101000a900473ffffffffffffffffffffffffffffffffffffffff1673ffffffffffffffffffffffffffffffffffffffff163373ffffffffffffffffffffffffffffffffffffffff1614611086576040517f08c379a000000000000000000000000000000000000000000000000000000000815260040161107d9061216f565b60405180910390fd5b600073ffffffffffffffffffffffffffffffffffffffff168173ffffffffffffffffffffffffffffffffffffffff16036110f5576040517f08c379a00000000000000000000000000000000000000000000000000000000081526004016110ec906126f5565b60405180910390fd5b8073ffffffffffffffffffffffffffffffffffffffff1660008054906101000a900473ffffffffffffffffffffffffffffffffffffffff1673ffffffffffffffffffffffffffffffffffffffff167f7e644d79422f17c01e4894b5f4f588d331ebfa28653d42ae832dc59e38c9798f60405160405180910390a3806000806101000a81548173ffffffffffffffffffffffffffffffffffffffff021916908373ffffffffffffffffffffffffffffffffffffffff16021790555050565b6060600060055467ffffffffffffffff8111156111d2576111d16118f7565b5b60405190808252806020026020018201604052801561120b57816020015b6111f8611783565b8152602001906001900390816111f05790505b5090506000600190505b60055481116113b2576040518060600160405280828152602001600260008481526020019081526020016000206001018054611250906121be565b80601f016020809104026020016040519081016040528092919081815260200182805461127c906121be565b80156112c95780601f1061129e576101008083540402835291602001916112c9565b820191906000526020600020905b8154815290600101906020018083116112ac57829003601f168201915b505050505081526020016002600084815260200190815260200160002060020180546112f4906121be565b80601f0160208091040260200160405190810160405280929190818152602001828054611320906121be565b801561136d5780601f106113425761010080835404028352916020019161136d565b820191906000526020600020905b81548152906001019060200180831161135057829003601f168201915b5050505050815250826001836113839190612715565b815181106113945761139361267a565b5b602002602001018190525080806113aa906120b5565b915050611215565b508091505090565b600460009054906101000a900460ff1681565b60008054906101000a900473ffffffffffffffffffffffffffffffffffffffff1673ffffffffffffffffffffffffffffffffffffffff163373ffffffffffffffffffffffffffffffffffffffff161461145b576040517f08c379a00000000000000000000000000000000000000000000000000000000081526004016114529061216f565b60405180910390fd5b600460009054906101000a900460ff166114aa576040517f08c379a00000000000000000000000000000000000000000000000000000000081526004016114a190612795565b60405180910390fd5b6000600460006101000a81548160ff0219169083151502179055507f66b6cb4a09abc3bf1cacc3c67420258856ffdad0deba9078cbd1658957b5021860405160405180910390a1565b60016020528060005260406000206000915054906101000a900460ff1681565b6060600060055467ffffffffffffffff811115611533576115326118f7565b5b60405190808252806020026020018201604052801561156c57816020015b61155961175b565b8152602001906001900390816115515790505b5090506000600190505b600554811161172f5760405180608001604052808281526020016002600084815260200190815260200160002060010180546115b1906121be565b80601f01602080910402602001604051908101604052809291908181526020018280546115dd906121be565b801561162a5780601f106115ff5761010080835404028352916020019161162a565b820191906000526020600020905b81548152906001019060200180831161160d57829003601f168201915b50505050508152602001600260008481526020019081526020016000206002018054611655906121be565b80601f0160208091040260200160405190810160405280929190818152602001828054611681906121be565b80156116ce5780601f106116a3576101008083540402835291602001916116ce565b820191906000526020600020905b8154815290600101906020018083116116b157829003601f168201915b505050505081526020016002600084815260200190815260200160002060030154815250826001836117009190612715565b815181106117115761171061267a565b5b60200260200101819052508080611727906120b5565b915050611576565b508091505090565b60008054906101000a900473ffffffffffffffffffffffffffffffffffffffff1681565b6040518060800160405280600081526020016060815260200160608152602001600081525090565b60405180606001604052806000815260200160608152602001606081525090565b6000604051905090565b600080fd5b600080fd5b6000819050919050565b6117cb816117b8565b81146117d657600080fd5b50565b6000813590506117e8816117c2565b92915050565b600060208284031215611804576118036117ae565b5b6000611812848285016117d9565b91505092915050565b600073ffffffffffffffffffffffffffffffffffffffff82169050919050565b60006118468261181b565b9050919050565b6118568161183b565b811461186157600080fd5b50565b6000813590506118738161184d565b92915050565b60006020828403121561188f5761188e6117ae565b5b600061189d84828501611864565b91505092915050565b60008115159050919050565b6118bb816118a6565b82525050565b60006020820190506118d660008301846118b2565b92915050565b600080fd5b600080fd5b6000601f19601f8301169050919050565b7f4e487b7100000000000000000000000000000000000000000000000000000000600052604160045260246000fd5b61192f826118e6565b810181811067ffffffffffffffff8211171561194e5761194d6118f7565b5b80604052505050565b60006119616117a4565b905061196d8282611926565b919050565b600067ffffffffffffffff82111561198d5761198c6118f7565b5b611996826118e6565b9050602081019050919050565b82818337600083830152505050565b60006119c56119c084611972565b611957565b9050828152602081018484840111156119e1576119e06118e1565b5b6119ec8482856119a3565b509392505050565b600082601f830112611a0957611a086118dc565b5b8135611a198482602086016119b2565b91505092915050565b60008060408385031215611a3957611a386117ae565b5b600083013567ffffffffffffffff811115611a5757611a566117b3565b5b611a63858286016119f4565b925050602083013567ffffffffffffffff811115611a8457611a836117b3565b5b611a90858286016119f4565b9150509250929050565b611aa3816117b8565b82525050565b6000602082019050611abe6000830184611a9a565b92915050565b600081519050919050565b600082825260208201905092915050565b60005b83811015611afe578082015181840152602081019050611ae3565b60008484015250505050565b6000611b1582611ac4565b611b1f8185611acf565b9350611b2f818560208601611ae0565b611b38816118e6565b840191505092915050565b600060a082019050611b586000830188611a9a565b8181036020830152611b6a8187611b0a565b90508181036040830152611b7e8186611b0a565b9050611b8d6060830185611a9a565b611b9a60808301846118b2565b9695505050505050565b600081519050919050565b600082825260208201905092915050565b6000819050602082019050919050565b611bd9816117b8565b82525050565b600082825260208201905092915050565b6000611bfb82611ac4565b611c058185611bdf565b9350611c15818560208601611ae0565b611c1e816118e6565b840191505092915050565b6000608083016000830151611c416000860182611bd0565b5060208301518482036020860152611c598282611bf0565b91505060408301518482036040860152611c738282611bf0565b9150506060830151611c886060860182611bd0565b508091505092915050565b6000611c9f8383611c29565b905092915050565b6000602082019050919050565b6000611cbf82611ba4565b611cc98185611baf565b935083602082028501611cdb85611bc0565b8060005b85811015611d175784840389528151611cf88582611c93565b9450611d0383611ca7565b925060208a01995050600181019050611cdf565b50829750879550505050505092915050565b60006020820190508181036000830152611d438184611cb4565b905092915050565b600081519050919050565b600082825260208201905092915050565b6000819050602082019050919050565b6000606083016000830151611d8f6000860182611bd0565b5060208301518482036020860152611da78282611bf0565b91505060408301518482036040860152611dc18282611bf0565b9150508091505092915050565b6000611dda8383611d77565b905092915050565b6000602082019050919050565b6000611dfa82611d4b565b611e048185611d56565b935083602082028501611e1685611d67565b8060005b85811015611e525784840389528151611e338582611dce565b9450611e3e83611de2565b925060208a01995050600181019050611e1a565b50829750879550505050505092915050565b60006020820190508181036000830152611e7e8184611def565b905092915050565b611e8f8161183b565b82525050565b6000602082019050611eaa6000830184611e86565b92915050565b7f4f6e6c79207265676973746572656420766f746572732063616e20766f746500600082015250565b6000611ee6601f83611acf565b9150611ef182611eb0565b602082019050919050565b60006020820190508181036000830152611f1581611ed9565b9050919050565b7f566f74696e67206973206e6f7420616c6c6f776564206174207468697320746960008201527f6d65000000000000000000000000000000000000000000000000000000000000602082015250565b6000611f78602283611acf565b9150611f8382611f1c565b604082019050919050565b60006020820190508181036000830152611fa781611f6b565b9050919050565b7f596f75206861766520616c726561647920766f74656400000000000000000000600082015250565b6000611fe4601683611acf565b9150611fef82611fae565b602082019050919050565b6000602082019050818103600083015261201381611fd7565b9050919050565b7f496e76616c69642063616e646964617465000000000000000000000000000000600082015250565b6000612050601183611acf565b915061205b8261201a565b602082019050919050565b6000602082019050818103600083015261207f81612043565b9050919050565b7f4e487b7100000000000000000000000000000000000000000000000000000000600052601160045260246000fd5b60006120c0826117b8565b91507fffffffffffffffffffffffffffffffffffffffffffffffffffffffffffffffff82036120f2576120f1612086565b5b600182019050919050565b7f4f6e6c792061646d696e2063616e2063616c6c20746869732066756e6374696f60008201527f6e00000000000000000000000000000000000000000000000000000000000000602082015250565b6000612159602183611acf565b9150612164826120fd565b604082019050919050565b600060208201905081810360008301526121888161214c565b9050919050565b7f4e487b7100000000000000000000000000000000000000000000000000000000600052602260045260246000fd5b600060028204905060018216806121d657607f821691505b6020821081036121e9576121e861218f565b5b50919050565b60008190508160005260206000209050919050565b60006020601f8301049050919050565b600082821b905092915050565b6000600883026122517fffffffffffffffffffffffffffffffffffffffffffffffffffffffffffffffff82612214565b61225b8683612214565b95508019841693508086168417925050509392505050565b6000819050919050565b600061229861229361228e846117b8565b612273565b6117b8565b9050919050565b6000819050919050565b6122b28361227d565b6122c66122be8261229f565b848454612221565b825550505050565b600090565b6122db6122ce565b6122e68184846122a9565b505050565b5b8181101561230a576122ff6000826122d3565b6001810190506122ec565b5050565b601f82111561234f57612320816121ef565b61232984612204565b81016020851015612338578190505b61234c61234485612204565b8301826122eb565b50505b505050565b600082821c905092915050565b600061237260001984600802612354565b1980831691505092915050565b600061238b8383612361565b9150826002028217905092915050565b6123a482611ac4565b67ffffffffffffffff8111156123bd576123bc6118f7565b5b6123c782546121be565b6123d282828561230e565b600060209050601f83116001811461240557600084156123f3578287015190505b6123fd858261237f565b865550612465565b601f198416612413866121ef565b60005b8281101561243b57848901518255600182019150602085019450602081019050612416565b868310156124585784890151612454601f891682612361565b8355505b6001600288020188555050505b505050505050565b600060408201905081810360008301526124878185611b0a565b9050818103602083015261249b8184611b0a565b90509392505050565b7f566f74696e6720697320616c7265616479206f70656e00000000000000000000600082015250565b60006124da601683611acf565b91506124e5826124a4565b602082019050919050565b60006020820190508181036000830152612509816124cd565b9050919050565b7f566f74657220697320616c726561647920726567697374657265640000000000600082015250565b6000612546601b83611acf565b915061255182612510565b602082019050919050565b6000602082019050818103600083015261257581612539565b9050919050565b7f566f74696e67206d75737420626520636c6f73656420746f206465636c61726560008201527f2074686520726573756c74000000000000000000000000000000000000000000602082015250565b60006125d8602b83611acf565b91506125e38261257c565b604082019050919050565b60006020820190508181036000830152612607816125cb565b9050919050565b7f4e6f2076616c69642077696e6e657220666f756e640000000000000000000000600082015250565b6000612644601583611acf565b915061264f8261260e565b602082019050919050565b6000602082019050818103600083015261267381612637565b9050919050565b7f4e487b7100000000000000000000000000000000000000000000000000000000600052603260045260246000fd5b7f4e65772061646d696e20616464726573732063616e6e6f74206265207a65726f600082015250565b60006126df602083611acf565b91506126ea826126a9565b602082019050919050565b6000602082019050818103600083015261270e816126d2565b9050919050565b6000612720826117b8565b915061272b836117b8565b925082820390508181111561274357612742612086565b5b92915050565b7f566f74696e6720697320616c726561647920636c6f7365640000000000000000600082015250565b600061277f601883611acf565b915061278a82612749565b602082019050919050565b600060208201905081810360008301526127ae81612772565b905091905056fea26469706673582212209231fb67f24d62cf834523ab37c25bb212a6a1b0e2cac314a69c64dd391d0bc564736f6c63430008140033",
  "linkReferences": {},
  "deployedLinkReferences": {}
}