{
  "_format": "hh-sol-artifact-1",
  "contractName": "voterr",
  "sourceName": "contracts/voterr.sol",
  "abi": [
    {
      "inputs": [],
      "stateMutability": "nonpayable",
      "type": "constructor"
    },
    {
      "anonymous": false,
      "inputs": [
        {
          "indexed": true,
          "internalType": "address",
          "name": "oldAdmin",
          "type": "address"
        },
        {
          "indexed": true,
          "internalType": "address",
          "name": "newAdmin",
          "type": "address"
        }
      ],
      "name": "AdminChanged",
      "type": "event"
    },
    {
      "anonymous": false,
      "inputs": [
        {
          "indexed": true,
          "internalType": "uint256",
          "name": "candidateId",
          "type": "uint256"
        },
        {
          "indexed": false,
          "internalType": "string",
          "name": "name",
          "type": "string"
        },
        {
          "indexed": false,
          "internalType": "string",
          "name": "party",
          "type": "string"
        }
      ],
      "name": "CandidateRegistered",
      "type": "event"
    },
    {
      "anonymous": false,
      "inputs": [
        {
          "indexed": true,
          "internalType": "uint256",
          "name": "winnerId",
          "type": "uint256"
        },
        {
          "indexed": false,
          "internalType": "string",
          "name": "name",
          "type": "string"
        },
        {
          "indexed": false,
          "internalType": "string",
          "name": "party",
          "type": "string"
        },
        {
          "indexed": false,
          "internalType": "uint256",
          "name": "votesCount",
          "type": "uint256"
        }
      ],
      "name": "ResultDeclared",
      "type": "event"
    },
    {
      "anonymous": false,
      "inputs": [
        {
          "indexed": true,
          "internalType": "address",
          "name": "voter",
          "type": "address"
        },
        {
          "indexed": true,
          "internalType": "uint256",
          "name": "candidateId",
          "type": "uint256"
        }
      ],
      "name": "Voted",
      "type": "event"
    },
    {
      "anonymous": false,
      "inputs": [
        {
          "indexed": true,
          "internalType": "address",
          "name": "voter",
          "type": "address"
        }
      ],
      "name": "VoterRegistered",
      "type": "event"
    },
    {
      "anonymous": false,
      "inputs": [],
      "name": "VotingClosed",
      "type": "event"
    },
    {
      "anonymous": false,
      "inputs": [],
      "name": "VotingReopened",
      "type": "event"
    },
    {
      "inputs": [],
      "name": "admin",
      "outputs": [
        {
          "internalType": "address",
          "name": "",
          "type": "address"
        }
      ],
      "stateMutability": "view",
      "type": "function"
    },
    {
      "inputs": [
        {
          "internalType": "uint256",
          "name": "",
          "type": "uint256"
        }
      ],
      "name": "candidates",
      "outputs": [
        {
          "internalType": "uint256",
          "name": "candidateId",
          "type": "uint256"
        },
        {
          "internalType": "string",
          "name": "name",
          "type": "string"
        },
        {
          "internalType": "string",
          "name": "party",
          "type": "string"
        },
        {
          "internalType": "uint256",
          "name": "votes",
          "type": "uint256"
        },
        {
          "internalType": "bool",
          "name": "exists",
          "type": "bool"
        }
      ],
      "stateMutability": "view",
      "type": "function"
    },
    {
      "inputs": [
        {
          "internalType": "address",
          "name": "newAdmin",
          "type": "address"
        }
      ],
      "name": "changeAdmin",
      "outputs": [],
      "stateMutability": "nonpayable",
      "type": "function"
    },
    {
      "inputs": [],
      "name": "closeVoting",
      "outputs": [],
      "stateMutability": "nonpayable",
      "type": "function"
    },
    {
      "inputs": [],
      "name": "declareResult",
      "outputs": [
        {
          "components": [
            {
              "internalType": "uint256",
              "name": "candidateId",
              "type": "uint256"
            },
            {
              "internalType": "string",
              "name": "name",
              "type": "string"
            },
            {
              "internalType": "string",
              "name": "party",
              "type": "string"
            },
            {
              "internalType": "uint256",
              "name": "votesCount",
              "type": "uint256"
            }
          ],
          "internalType": "struct voterr.VoteResult",
          "name": "",
          "type": "tuple"
        }
      ],
      "stateMutability": "nonpayable",
      "type": "function"
    },
    {
      "inputs": [],
      "name": "getCandidatesInfo",
      "outputs": [
        {
          "components": [
            {
              "internalType": "uint256",
              "name": "candidateId",
              "type": "uint256"
            },
            {
              "internalType": "string",
              "name": "name",
              "type": "string"
            },
            {
              "internalType": "string",
              "name": "party",
              "type": "string"
            }
          ],
          "internalType": "struct voterr.CandidateInfo[]",
          "name": "",
          "type": "tuple[]"
        }
      ],
      "stateMutability": "view",
      "type": "function"
    },
    {
      "inputs": [
        {
          "internalType": "uint256",
          "name": "candidateId",
          "type": "uint256"
        }
      ],
      "name": "getVotesCount",
      "outputs": [
        {
          "internalType": "uint256",
          "name": "",
          "type": "uint256"
        }
      ],
      "stateMutability": "view",
      "type": "function"
    },
    {
      "inputs": [],
      "name": "getVotesForAllCandidates",
      "outputs": [
        {
          "components": [
            {
              "internalType": "uint256",
              "name": "candidateId",
              "type": "uint256"
            },
            {
              "internalType": "string",
              "name": "name",
              "type": "string"
            },
            {
              "internalType": "string",
              "name": "party",
              "type": "string"
            },
            {
              "internalType": "uint256",
              "name": "votesCount",
              "type": "uint256"
            }
          ],
          "internalType": "struct voterr.VoteResult[]",
          "name": "",
          "type": "tuple[]"
        }
      ],
      "stateMutability": "view",
      "type": "function"
    },
    {
      "inputs": [
        {
          "internalType": "address",
          "name": "",
          "type": "address"
        }
      ],
      "name": "hasVoted",
      "outputs": [
        {
          "internalType": "bool",
          "name": "",
          "type": "bool"
        }
      ],
      "stateMutability": "view",
      "type": "function"
    },
    {
      "inputs": [
        {
          "internalType": "address",
          "name": "",
          "type": "address"
        }
      ],
      "name": "isRegisteredVoter",
      "outputs": [
        {
          "internalType": "bool",
          "name": "",
          "type": "bool"
        }
      ],
      "stateMutability": "view",
      "type": "function"
    },
    {
      "inputs": [
        {
          "internalType": "string",
          "name": "name",
          "type": "string"
        },
        {
          "internalType": "string",
          "name": "party",
          "type": "string"
        }
      ],
      "name": "registerCandidate",
      "outputs": [],
      "stateMutability": "nonpayable",
      "type": "function"
    },
    {
      "inputs": [
        {
          "internalType": "address",
          "name": "voter",
          "type": "address"
        }
      ],
      "name": "registerVoter",
      "outputs": [],
      "stateMutability": "nonpayable",
      "type": "function"
    },
    {
      "inputs": [],
      "name": "reopenVoting",
      "outputs": [],
      "stateMutability": "nonpayable",
      "type": "function"
    },
    {
      "inputs": [],
      "name": "totalCandidates",
      "outputs": [
        {
          "internalType": "uint256",
          "name": "",
          "type": "uint256"
        }
      ],
      "stateMutability": "view",
      "type": "function"
    },
    {
      "inputs": [
        {
          "internalType": "uint256",
          "name": "candidateId",
          "type": "uint256"
        }
      ],
      "name": "vote",
      "outputs": [],
      "stateMutability": "nonpayable",
      "type": "function"
    },
    {
      "inputs": [],
      "name": "votingOpen",
      "outputs": [
        {
          "internalType": "bool",
          "name": "",
          "type": "bool"
        }
      ],
      "stateMutability": "view",
      "type": "function"
    }
  ],
  "bytecode": "0x608060405234801561001057600080fd5b50336000806101000a81548173ffffffffffffffffffffffffffffffffffffffff021916908373ffffffffffffffffffffffffffffffffffffffff1602179055506001600460006101000a81548160ff021916908315150217905550600060058190555061281c806100836000396000f3fe608060405234801561001057600080fd5b50600436106101005760003560e01c80638574c29611610097578063c631b29211610066578063c631b2921461028b578063da36cffe14610295578063ea5fb4a4146102c5578063f851a440146102e357610100565b80638574c296146102155780638f28397014610233578063a4bcbf1e1461024f578063a95824b41461026d57610100565b80632f61eabc116100d35780632f61eabc1461019d5780633477ee2e146101a75780633866965c146101db57806338db6dd3146101f957610100565b80630121b93f1461010557806309eef43e146101215780630dbce4dd146101515780631937c2611461016d575b600080fd5b61011f600480360381019061011a919061174e565b610301565b005b61013b600480360381019061013691906117d9565b610597565b6040516101489190611821565b60405180910390f35b61016b60048036038101906101669190611982565b6105b7565b005b6101876004803603810190610182919061174e565b610742565b6040516101949190611a09565b60405180910390f35b6101a56107c5565b005b6101c160048036038101906101bc919061174e565b6108ec565b6040516101d2959493929190611aa3565b60405180910390f35b6101e3610a3f565b6040516101f09190611a09565b60405180910390f35b610213600480360381019061020e91906117d9565b610a45565b005b61021d610bfd565b60405161022a9190611bc7565b60405180910390f35b61024d600480360381019061024891906117d9565b610f58565b005b610257611112565b6040516102649190611d02565b60405180910390f35b61027561131a565b6040516102829190611821565b60405180910390f35b61029361132d565b005b6102af60048036038101906102aa91906117d9565b611453565b6040516102bc9190611821565b60405180910390f35b6102cd611473565b6040516102da9190611e50565b60405180910390f35b6102eb611697565b6040516102f89190611e81565b60405180910390f35b600160003373ffffffffffffffffffffffffffffffffffffffff1673ffffffffffffffffffffffffffffffffffffffff16815260200190815260200160002060009054906101000a900460ff1661038d576040517f08c379a000000000000000000000000000000000000000000000000000000000815260040161038490611ee8565b60405180910390fd5b600460009054906101000a900460ff166103dc576040517f08c379a00000000000000000000000000000000000000000000000000000000081526004016103d390611f7a565b60405180910390fd5b600360003373ffffffffffffffffffffffffffffffffffffffff1673ffffffffffffffffffffffffffffffffffffffff16815260200190815260200160002060009054906101000a900460ff1615610469576040517f08c379a000000000000000000000000000000000000000000000000000000000815260040161046090611fe6565b60405180910390fd5b6002600082815260200190815260200160002060040160009054906101000a900460ff166104cc576040517f08c379a00000000000000000000000000000000000000000000000000000000081526004016104c390612052565b60405180910390fd5b6001600360003373ffffffffffffffffffffffffffffffffffffffff1673ffffffffffffffffffffffffffffffffffffffff16815260200190815260200160002060006101000a81548160ff02191690831515021790555060026000828152602001908152602001600020600301600081548092919061054b906120a1565b9190505550803373ffffffffffffffffffffffffffffffffffffffff167f4d99b957a2bc29a30ebd96a7be8e68fe50a3c701db28a91436490b7d53870ca460405160405180910390a350565b60036020528060005260406000206000915054906101000a900460ff1681565b60008054906101000a900473ffffffffffffffffffffffffffffffffffffffff1673ffffffffffffffffffffffffffffffffffffffff163373ffffffffffffffffffffffffffffffffffffffff1614610645576040517f08c379a000000000000000000000000000000000000000000000000000000000815260040161063c9061215b565b60405180910390fd5b60056000815480929190610658906120a1565b91905055506040518060a00160405280600554815260200183815260200182815260200160008152602001600115158152506002600060055481526020019081526020016000206000820151816000015560208201518160010190816106be9190612387565b5060408201518160020190816106d49190612387565b506060820151816003015560808201518160040160006101000a81548160ff0219169083151502179055509050506005547f0ec1a365aeeec255796bf50d7a2a8f24d0d5f5c6ada0167b6c647428d91645828383604051610736929190612459565b60405180910390a25050565b60006002600083815260200190815260200160002060040160009054906101000a900460ff166107a7576040517f08c379a000000000000000000000000000000000000000000000000000000000815260040161079e90612052565b60405180910390fd5b60026000838152602001908152602001600020600301549050919050565b60008054906101000a900473ffffffffffffffffffffffffffffffffffffffff1673ffffffffffffffffffffffffffffffffffffffff163373ffffffffffffffffffffffffffffffffffffffff1614610853576040517f08c379a000000000000000000000000000000000000000000000000000000000815260040161084a9061215b565b60405180910390fd5b600460009054906101000a900460ff16156108a3576040517f08c379a000000000000000000000000000000000000000000000000000000000815260040161089a906124dc565b60405180910390fd5b6001600460006101000a81548160ff0219169083151502179055507fdacbeb9b45dfe110dbb2ef27339c6ccced84bab18a2678db489d80e975634f1b60405160405180910390a1565b6002602052806000526040600020600091509050806000015490806001018054610915906121aa565b80601f0160208091040260200160405190810160405280929190818152602001828054610941906121aa565b801561098e5780601f106109635761010080835404028352916020019161098e565b820191906000526020600020905b81548152906001019060200180831161097157829003601f168201915b5050505050908060020180546109a3906121aa565b80601f01602080910402602001604051908101604052809291908181526020018280546109cf906121aa565b8015610a1c5780601f106109f157610100808354040283529160200191610a1c565b820191906000526020600020905b8154815290600101906020018083116109ff57829003601f168201915b5050505050908060030154908060040160009054906101000a900460ff16905085565b60055481565b60008054906101000a900473ffffffffffffffffffffffffffffffffffffffff1673ffffffffffffffffffffffffffffffffffffffff163373ffffffffffffffffffffffffffffffffffffffff1614610ad3576040517f08c379a0000000000000000000000000000000000000000000000000000000008152600401610aca9061215b565b60405180910390fd5b600160008273ffffffffffffffffffffffffffffffffffffffff1673ffffffffffffffffffffffffffffffffffffffff16815260200190815260200160002060009054906101000a900460ff1615610b60576040517f08c379a0000000000000000000000000000000000000000000000000000000008152600401610b5790612548565b60405180910390fd5b60018060008373ffffffffffffffffffffffffffffffffffffffff1673ffffffffffffffffffffffffffffffffffffffff16815260200190815260200160002060006101000a81548160ff0219169083151502179055508073ffffffffffffffffffffffffffffffffffffffff167fb6be2187d059cc2a55fe29e0e503b566e1e0f8c8780096e185429350acffd3dd60405160405180910390a250565b610c056116bb565b60008054906101000a900473ffffffffffffffffffffffffffffffffffffffff1673ffffffffffffffffffffffffffffffffffffffff163373ffffffffffffffffffffffffffffffffffffffff1614610c93576040517f08c379a0000000000000000000000000000000000000000000000000000000008152600401610c8a9061215b565b60405180910390fd5b600460009054906101000a900460ff1615610ce3576040517f08c379a0000000000000000000000000000000000000000000000000000000008152600401610cda906125da565b60405180910390fd5b600080600090506000600190505b6005548111610d48578160026000838152602001908152602001600020600301541115610d3557600260008281526020019081526020016000206003015491508092505b8080610d40906120a1565b915050610cf1565b5060008203610d8c576040517f08c379a0000000000000000000000000000000000000000000000000000000008152600401610d8390612646565b60405180910390fd5b60006040518060800160405280848152602001600260008681526020019081526020016000206001018054610dc0906121aa565b80601f0160208091040260200160405190810160405280929190818152602001828054610dec906121aa565b8015610e395780601f10610e0e57610100808354040283529160200191610e39565b820191906000526020600020905b815481529060010190602001808311610e1c57829003601f168201915b50505050508152602001600260008681526020019081526020016000206002018054610e64906121aa565b80601f0160208091040260200160405190810160405280929190818152602001828054610e90906121aa565b8015610edd5780601f10610eb257610100808354040283529160200191610edd565b820191906000526020600020905b815481529060010190602001808311610ec057829003601f168201915b505050505081526020016002600086815260200190815260200160002060030154815250905080600001517f9538ca086dc980ec7eb305b64e9af72c57b8d8210a6a7d8cef130980a9ddaca0826020015183604001518460600151604051610f4793929190612666565b60405180910390a280935050505090565b60008054906101000a900473ffffffffffffffffffffffffffffffffffffffff1673ffffffffffffffffffffffffffffffffffffffff163373ffffffffffffffffffffffffffffffffffffffff1614610fe6576040517f08c379a0000000000000000000000000000000000000000000000000000000008152600401610fdd9061215b565b60405180910390fd5b600073ffffffffffffffffffffffffffffffffffffffff168173ffffffffffffffffffffffffffffffffffffffff1603611055576040517f08c379a000000000000000000000000000000000000000000000000000000000815260040161104c906126f7565b60405180910390fd5b8073ffffffffffffffffffffffffffffffffffffffff1660008054906101000a900473ffffffffffffffffffffffffffffffffffffffff1673ffffffffffffffffffffffffffffffffffffffff167f7e644d79422f17c01e4894b5f4f588d331ebfa28653d42ae832dc59e38c9798f60405160405180910390a3806000806101000a81548173ffffffffffffffffffffffffffffffffffffffff021916908373ffffffffffffffffffffffffffffffffffffffff16021790555050565b6060600060055467ffffffffffffffff81111561113257611131611857565b5b60405190808252806020026020018201604052801561116b57816020015b6111586116e3565b8152602001906001900390816111505790505b5090506000600190505b60055481116113125760405180606001604052808281526020016002600084815260200190815260200160002060010180546111b0906121aa565b80601f01602080910402602001604051908101604052809291908181526020018280546111dc906121aa565b80156112295780601f106111fe57610100808354040283529160200191611229565b820191906000526020600020905b81548152906001019060200180831161120c57829003601f168201915b50505050508152602001600260008481526020019081526020016000206002018054611254906121aa565b80601f0160208091040260200160405190810160405280929190818152602001828054611280906121aa565b80156112cd5780601f106112a2576101008083540402835291602001916112cd565b820191906000526020600020905b8154815290600101906020018083116112b057829003601f168201915b5050505050815250826001836112e39190612717565b815181106112f4576112f361274b565b5b6020026020010181905250808061130a906120a1565b915050611175565b508091505090565b600460009054906101000a900460ff1681565b60008054906101000a900473ffffffffffffffffffffffffffffffffffffffff1673ffffffffffffffffffffffffffffffffffffffff163373ffffffffffffffffffffffffffffffffffffffff16146113bb576040517f08c379a00000000000000000000000000000000000000000000000000000000081526004016113b29061215b565b60405180910390fd5b600460009054906101000a900460ff1661140a576040517f08c379a0000000000000000000000000000000000000000000000000000000008152600401611401906127c6565b60405180910390fd5b6000600460006101000a81548160ff0219169083151502179055507f66b6cb4a09abc3bf1cacc3c67420258856ffdad0deba9078cbd1658957b5021860405160405180910390a1565b60016020528060005260406000206000915054906101000a900460ff1681565b6060600060055467ffffffffffffffff81111561149357611492611857565b5b6040519080825280602002602001820160405280156114cc57816020015b6114b96116bb565b8152602001906001900390816114b15790505b5090506000600190505b600554811161168f576040518060800160405280828152602001600260008481526020019081526020016000206001018054611511906121aa565b80601f016020809104026020016040519081016040528092919081815260200182805461153d906121aa565b801561158a5780601f1061155f5761010080835404028352916020019161158a565b820191906000526020600020905b81548152906001019060200180831161156d57829003601f168201915b505050505081526020016002600084815260200190815260200160002060020180546115b5906121aa565b80601f01602080910402602001604051908101604052809291908181526020018280546115e1906121aa565b801561162e5780601f106116035761010080835404028352916020019161162e565b820191906000526020600020905b81548152906001019060200180831161161157829003601f168201915b505050505081526020016002600084815260200190815260200160002060030154815250826001836116609190612717565b815181106116715761167061274b565b5b60200260200101819052508080611687906120a1565b9150506114d6565b508091505090565b60008054906101000a900473ffffffffffffffffffffffffffffffffffffffff1681565b6040518060800160405280600081526020016060815260200160608152602001600081525090565b60405180606001604052806000815260200160608152602001606081525090565b6000604051905090565b600080fd5b600080fd5b6000819050919050565b61172b81611718565b811461173657600080fd5b50565b60008135905061174881611722565b92915050565b6000602082840312156117645761176361170e565b5b600061177284828501611739565b91505092915050565b600073ffffffffffffffffffffffffffffffffffffffff82169050919050565b60006117a68261177b565b9050919050565b6117b68161179b565b81146117c157600080fd5b50565b6000813590506117d3816117ad565b92915050565b6000602082840312156117ef576117ee61170e565b5b60006117fd848285016117c4565b91505092915050565b60008115159050919050565b61181b81611806565b82525050565b60006020820190506118366000830184611812565b92915050565b600080fd5b600080fd5b6000601f19601f8301169050919050565b7f4e487b7100000000000000000000000000000000000000000000000000000000600052604160045260246000fd5b61188f82611846565b810181811067ffffffffffffffff821117156118ae576118ad611857565b5b80604052505050565b60006118c1611704565b90506118cd8282611886565b919050565b600067ffffffffffffffff8211156118ed576118ec611857565b5b6118f682611846565b9050602081019050919050565b82818337600083830152505050565b6000611925611920846118d2565b6118b7565b90508281526020810184848401111561194157611940611841565b5b61194c848285611903565b509392505050565b600082601f8301126119695761196861183c565b5b8135611979848260208601611912565b91505092915050565b600080604083850312156119995761199861170e565b5b600083013567ffffffffffffffff8111156119b7576119b6611713565b5b6119c385828601611954565b925050602083013567ffffffffffffffff8111156119e4576119e3611713565b5b6119f085828601611954565b9150509250929050565b611a0381611718565b82525050565b6000602082019050611a1e60008301846119fa565b92915050565b600081519050919050565b600082825260208201905092915050565b60005b83811015611a5e578082015181840152602081019050611a43565b60008484015250505050565b6000611a7582611a24565b611a7f8185611a2f565b9350611a8f818560208601611a40565b611a9881611846565b840191505092915050565b600060a082019050611ab860008301886119fa565b8181036020830152611aca8187611a6a565b90508181036040830152611ade8186611a6a565b9050611aed60608301856119fa565b611afa6080830184611812565b9695505050505050565b611b0d81611718565b82525050565b600082825260208201905092915050565b6000611b2f82611a24565b611b398185611b13565b9350611b49818560208601611a40565b611b5281611846565b840191505092915050565b6000608083016000830151611b756000860182611b04565b5060208301518482036020860152611b8d8282611b24565b91505060408301518482036040860152611ba78282611b24565b9150506060830151611bbc6060860182611b04565b508091505092915050565b60006020820190508181036000830152611be18184611b5d565b905092915050565b600081519050919050565b600082825260208201905092915050565b6000819050602082019050919050565b6000606083016000830151611c2d6000860182611b04565b5060208301518482036020860152611c458282611b24565b91505060408301518482036040860152611c5f8282611b24565b9150508091505092915050565b6000611c788383611c15565b905092915050565b6000602082019050919050565b6000611c9882611be9565b611ca28185611bf4565b935083602082028501611cb485611c05565b8060005b85811015611cf05784840389528151611cd18582611c6c565b9450611cdc83611c80565b925060208a01995050600181019050611cb8565b50829750879550505050505092915050565b60006020820190508181036000830152611d1c8184611c8d565b905092915050565b600081519050919050565b600082825260208201905092915050565b6000819050602082019050919050565b6000608083016000830151611d686000860182611b04565b5060208301518482036020860152611d808282611b24565b91505060408301518482036040860152611d9a8282611b24565b9150506060830151611daf6060860182611b04565b508091505092915050565b6000611dc68383611d50565b905092915050565b6000602082019050919050565b6000611de682611d24565b611df08185611d2f565b935083602082028501611e0285611d40565b8060005b85811015611e3e5784840389528151611e1f8582611dba565b9450611e2a83611dce565b925060208a01995050600181019050611e06565b50829750879550505050505092915050565b60006020820190508181036000830152611e6a8184611ddb565b905092915050565b611e7b8161179b565b82525050565b6000602082019050611e966000830184611e72565b92915050565b7f4f6e6c79207265676973746572656420766f746572732063616e20766f746500600082015250565b6000611ed2601f83611a2f565b9150611edd82611e9c565b602082019050919050565b60006020820190508181036000830152611f0181611ec5565b9050919050565b7f566f74696e67206973206e6f7420616c6c6f776564206174207468697320746960008201527f6d65000000000000000000000000000000000000000000000000000000000000602082015250565b6000611f64602283611a2f565b9150611f6f82611f08565b604082019050919050565b60006020820190508181036000830152611f9381611f57565b9050919050565b7f596f75206861766520616c726561647920766f74656400000000000000000000600082015250565b6000611fd0601683611a2f565b9150611fdb82611f9a565b602082019050919050565b60006020820190508181036000830152611fff81611fc3565b9050919050565b7f496e76616c69642063616e646964617465000000000000000000000000000000600082015250565b600061203c601183611a2f565b915061204782612006565b602082019050919050565b6000602082019050818103600083015261206b8161202f565b9050919050565b7f4e487b7100000000000000000000000000000000000000000000000000000000600052601160045260246000fd5b60006120ac82611718565b91507fffffffffffffffffffffffffffffffffffffffffffffffffffffffffffffffff82036120de576120dd612072565b5b600182019050919050565b7f4f6e6c792061646d696e2063616e2063616c6c20746869732066756e6374696f60008201527f6e00000000000000000000000000000000000000000000000000000000000000602082015250565b6000612145602183611a2f565b9150612150826120e9565b604082019050919050565b6000602082019050818103600083015261217481612138565b9050919050565b7f4e487b7100000000000000000000000000000000000000000000000000000000600052602260045260246000fd5b600060028204905060018216806121c257607f821691505b6020821081036121d5576121d461217b565b5b50919050565b60008190508160005260206000209050919050565b60006020601f8301049050919050565b600082821b905092915050565b60006008830261223d7fffffffffffffffffffffffffffffffffffffffffffffffffffffffffffffffff82612200565b6122478683612200565b95508019841693508086168417925050509392505050565b6000819050919050565b600061228461227f61227a84611718565b61225f565b611718565b9050919050565b6000819050919050565b61229e83612269565b6122b26122aa8261228b565b84845461220d565b825550505050565b600090565b6122c76122ba565b6122d2818484612295565b505050565b5b818110156122f6576122eb6000826122bf565b6001810190506122d8565b5050565b601f82111561233b5761230c816121db565b612315846121f0565b81016020851015612324578190505b612338612330856121f0565b8301826122d7565b50505b505050565b600082821c905092915050565b600061235e60001984600802612340565b1980831691505092915050565b6000612377838361234d565b9150826002028217905092915050565b61239082611a24565b67ffffffffffffffff8111156123a9576123a8611857565b5b6123b382546121aa565b6123be8282856122fa565b600060209050601f8311600181146123f157600084156123df578287015190505b6123e9858261236b565b865550612451565b601f1984166123ff866121db565b60005b8281101561242757848901518255600182019150602085019450602081019050612402565b868310156124445784890151612440601f89168261234d565b8355505b6001600288020188555050505b505050505050565b600060408201905081810360008301526124738185611a6a565b905081810360208301526124878184611a6a565b90509392505050565b7f566f74696e6720697320616c7265616479206f70656e00000000000000000000600082015250565b60006124c6601683611a2f565b91506124d182612490565b602082019050919050565b600060208201905081810360008301526124f5816124b9565b9050919050565b7f566f74657220697320616c726561647920726567697374657265640000000000600082015250565b6000612532601b83611a2f565b915061253d826124fc565b602082019050919050565b6000602082019050818103600083015261256181612525565b9050919050565b7f566f74696e67206d75737420626520636c6f73656420746f206465636c61726560008201527f2074686520726573756c74000000000000000000000000000000000000000000602082015250565b60006125c4602b83611a2f565b91506125cf82612568565b604082019050919050565b600060208201905081810360008301526125f3816125b7565b9050919050565b7f4e6f2076616c69642077696e6e657220666f756e640000000000000000000000600082015250565b6000612630601583611a2f565b915061263b826125fa565b602082019050919050565b6000602082019050818103600083015261265f81612623565b9050919050565b600060608201905081810360008301526126808186611a6a565b905081810360208301526126948185611a6a565b90506126a360408301846119fa565b949350505050565b7f4e65772061646d696e20616464726573732063616e6e6f74206265207a65726f600082015250565b60006126e1602083611a2f565b91506126ec826126ab565b602082019050919050565b60006020820190508181036000830152612710816126d4565b9050919050565b600061272282611718565b915061272d83611718565b925082820390508181111561274557612744612072565b5b92915050565b7f4e487b7100000000000000000000000000000000000000000000000000000000600052603260045260246000fd5b7f566f74696e6720697320616c726561647920636c6f7365640000000000000000600082015250565b60006127b0601883611a2f565b91506127bb8261277a565b602082019050919050565b600060208201905081810360008301526127df816127a3565b905091905056fea2646970667358221220eee146d69db22e49223feaef9af226b419f8c86f8b6ca258d6895d9aaca9d46264736f6c63430008140033",
  "linkReferences": {},
  "deployedLinkReferences": {}
}